:020000040800F2
:1000000000400020653B00083D3500083F350008F2
:1000100000000000000000000000000000000000E0
:100020000000000000000000000000004135000852
:1000300000000000000000004335000845350008BE
:10004000B53B0008B53B0008B53B0008B53B0008D0
:10005000B53B0008B53B0008B53B0008B53B0008C0
:10006000B53B0008B53B0008B53B0008B53B0008B0
:10007000B53B0008B53B0008B53B00084935000812
:1000800059350008B53B0008B53B00086935000844
:10009000B53B0008B53B000879350008B53B0008C2
:1000A000B53B0008B53B0008B53B0008B53B000870
:1000B000B53B0008B53B0008B53B00088935000892
:1000C00010B5064C2378002B07D1054B002B02D02E
:1000D000044800E000BF0123237010BD800300200E
:1000E00000000000D8D90008044B10B5002B03D045
:1000F0000349044800E000BF10BDC04600000000F6
:1001000084030020D8D900080023C25C0133002AF0
:10011000FBD1581E7047000002B4714649084900DF
:10012000095C49008E4402BC7047C04603B4714666
:10013000490840004900095E49008E4403BC7047ED
:10014000002243088B4274D303098B425FD3030A16
:100150008B4244D3030B8B4228D3030C8B420DD329
:10016000FF22090212BA030C8B4202D312120902B7
:1001700065D0030B8B4219D300E0090AC30B8B42F5
:1001800001D3CB03C01A5241830B8B4201D38B03A3
:10019000C01A5241430B8B4201D34B03C01A524148
:1001A000030B8B4201D30B03C01A5241C30A8B428B
:1001B00001D3CB02C01A5241830A8B4201D38B0276
:1001C000C01A5241430A8B4201D34B02C01A52411A
:1001D000030A8B4201D30B02C01A5241CDD2C3098C
:1001E0008B4201D3CB01C01A524183098B4201D308
:1001F0008B01C01A524143098B4201D34B01C01AF3
:10020000524103098B4201D30B01C01A5241C3086A
:100210008B4201D3CB00C01A524183088B4201D3D9
:100220008B00C01A524143088B4201D34B00C01AC5
:100230005241411A00D20146524110467047FFE731
:1002400001B5002000F0F0F802BDC0460029F7D04B
:1002500076E7704703460B437FD4002243088B4266
:1002600074D303098B425FD3030A8B4244D3030B3D
:100270008B4228D3030C8B420DD3FF22090212BA02
:10028000030C8B4202D31212090265D0030B8B427E
:1002900019D300E0090AC30B8B4201D3CB03C01A68
:1002A0005241830B8B4201D38B03C01A5241430B43
:1002B0008B4201D34B03C01A5241030B8B4201D333
:1002C0000B03C01A5241C30A8B4201D3CB02C01A9E
:1002D0005241830A8B4201D38B02C01A5241430A16
:1002E0008B4201D34B02C01A5241030A8B4201D305
:1002F0000B02C01A5241CDD2C3098B4201D3CB01AC
:10030000C01A524183098B4201D38B01C01A52415A
:1003100043098B4201D34B01C01A524103098B425E
:1003200001D30B01C01A5241C3088B4201D3CB0049
:10033000C01A524183088B4201D38B00C01A52412C
:1003400043088B4201D34B00C01A5241411A00D2DC
:1003500001465241104670475DE0CA0F00D0494245
:10036000031000D34042534000229C4603098B42B5
:100370002DD3030A8B4212D3FC22890112BA030A3D
:100380008B420CD3890192118B4208D389019211BF
:100390008B4204D389013AD0921100E08909C30944
:1003A0008B4201D3CB01C01A524183098B4201D346
:1003B0008B01C01A524143098B4201D34B01C01A31
:1003C000524103098B4201D30B01C01A5241C308A9
:1003D0008B4201D3CB00C01A524183088B4201D318
:1003E0008B00C01A5241D9D243088B4201D34B0033
:1003F000C01A5241411A00D20146634652415B1075
:10040000104601D34042002B00D549427047634655
:100410005B1000D3404201B5002000F005F802BD9A
:100420000029F8D016E770477047C0468446100090
:1004300062468C461900634600E0C0461FB501F0D5
:10044000DDFE002801D40021C8421FBD10B501F017
:100450002DFE4042013010BD10B501F0CFFE002846
:1004600001DB002010BD012010BDC04610B501F019
:10047000C5FE002801DD002010BD012010BDC046D2
:1004800010B501F055FE002801DC002010BD012050
:1004900010BDC04610B501F04BFE002801DA002067
:1004A00010BD012010BDC046844608006146FFE72C
:1004B0001FB500F001FC002801D40021C8421FBD77
:1004C00010B500F08DFB4042013010BD10B500F0BA
:1004D000F3FB002801DB002010BD012010BDC04649
:1004E00010B500F0E9FB002801DD002010BD01205F
:1004F00010BDC04610B500F099FB002801DC0020BB
:1005000010BD012010BDC04610B500F08FFB0028C3
:1005100001DA002010BD012010BDC0469E2110B59B
:10052000C905041CFFF7F0FF002803D1201C00F0D0
:10053000DBFE10BD9E21201CC90500F027FD00F048
:10054000D3FE80231B069C466044F2E770B5002270
:100550000C4B04000D00FFF79DFF002804D1200084
:10056000290002F0CBFC70BD064B002220002900C0
:1005700002F014F902F0C2FC80231B069C46604482
:10058000F1E7C0460000E04170B505000C00002214
:10059000002328002100FFF75FFF002808D1280072
:1005A000210000F00FF802000B001000190070BDD0
:1005B00080231B06E118280000F004F800234242C3
:1005C0008B41F2E770B500220B4B0D00040001F0E7
:1005D00079FEFFF7BBFF060002F0F6FC0022074B96
:1005E00001F070FE02000B002000290002F0D6F896
:1005F000FFF7ACFF310070BD0000F03D0000F0419E
:1006000070B50600080002F0AFFC0022064B01F0B6
:1006100059FE0D000400300002F0D6FC2B00220031
:1006200000F012FF70BDC0460000F0418023D0B53D
:100630009B0304000800994201D3630511D102F025
:10064000C3FC00220A4B01F03DFE06000F00200013
:1006500002F0BAFC32003B0000F0F6FE02F022FD90
:10066000D0BD8023E40AE4021B011C43E7E7C04637
:100670000000F041F0B5C64643025B0A4E02450059
:100680004F00DA00C40F9C46700A904600B52D0E4C
:100690003F0EC90FB6098C424BD0EA1B002A36DD4B
:1006A000002F61D0FF2D00D1ADE08023DB041E437D
:1006B0001B2A00DCD3E001204346181A430100D472
:1006C0008CE080018709380002F074FD053887400E
:1006D000854200DCB6E02D1AB3483840430704D009
:1006E0000F230340042B00D00430430100D478E0F2
:1006F0006A1CFE2D65D08001430A9C46D2B2634637
:10070000D0051843E407204380BCB846F0BD002A5A
:1007100035D07A1B002D00D0AFE04346002B00D12E
:10072000A7E0531E012A00D12FE1FF2A69D01A0049
:10073000AAE0E91B002970DD002F37D0FF2D62D021
:100740008023DB041E431B2900DCB0E00120404471
:10075000430143D50135FF2D33D00123934A034094
:10076000400810401843B9E7002E00D183E0511E25
:10077000012A00D1D8E0FF2A45D00A0098E7FE27D9
:100780006A1C174200D086E0002D00D0B7E0434637
:10079000002B00D1F3E00022002EB0D0981B4301C3
:1007A00000D4FAE043460C00F01A97E7002E00D17F
:1007B000C8E04A1E012900D1AEE0FF2923D0110074
:1007C000C1E70023FF229C4699E7FE216A1C1142E3
:1007D00077D0FF2AF5D0150046447008430700D0B3
:1007E0007EE7C308FF2D0ED05B025B0A9C46EAB28F
:1007F00085E7002E07D08022D203134203D0104297
:1008000001D10C000300002BDBD08020C003184373
:100810004002430A9C46FF2271E70029D5D07A1B8B
:10082000002D60D14346002B24D0531E012A73D0E3
:10083000FF2AE7D01A001B2A00DC85E001203D00DA
:10084000801985E720233A00451B38000135EA402E
:100850005D1BA840431E9841002510433EE720231E
:1008600030009B1A31009840D140431E9841084304
:1008700022E70C0003001500B4E7FF2FC1D080234E
:100880004046DB04184380461B2A51DD01200C0042
:100890003D00301A12E743469F1B7B012BD4002FEB
:1008A00000D010E70023002400229C4627E72023E5
:1008B00032003000CA40591A8840431E9841104304
:1008C00045E7002D4AD14346002B63D00022002E7D
:1008D00000D114E730004044430100D47EE7324B9E
:1008E000013518407AE7FF2F8CD080234146DB0486
:1008F000194388469FE743460C00F71AE3E6424651
:10090000002A00D075E7002E00D07AE78023DB03B1
:1009100000249C46FF22F2E63000404401254301BA
:1009200000D45BE7022518E743460125981BC5E67E
:10093000202344464046D4409A1A9040431E984192
:100940002043A4E70D004DE7202341464046D14017
:100950009A1A9040431E9841084370E74246002A85
:1009600000D14FE7002E00D14DE78022D203134281
:1009700000D148E7104200D045E7030043E7002ECE
:1009800090D00C0084460022B9E643460C00F01AD1
:10099000013593E684460022B1E6002800D01DE729
:1009A000002300249C46AAE6FFFFFFFBFFFFFF7D1C
:1009B000F0B54F464646D6464502C0B547000C1C2A
:1009C0006D0A3F0EC60F002F00D170E0FF2F00D13F
:1009D00075E0EB008025ED041D43002399469A46FF
:1009E0007F3F6002430A984663001B0EE40F002B12
:1009F0004ED0FF2B46D04246D0008022D204024384
:100A0000904600227F3B3100FF1A4B466140C9B23D
:100A100013430F2B00D9B5E06E489B00C3589F4687
:100A2000002398462600454692465346022B00D1A5
:100A300089E0032B00D19EE0012B18D03B007F33CF
:100A4000002B69DD6A0704D00F222A40042A00D057
:100A500004352A0103D5604B1D403B008033FE2B3B
:100A600000DD70E0AD016D0AD8B202E00E0000209A
:100A70000025C0052843F6073043E0BCBA46B1461E
:100A8000A846F0BD4346002B3FD10222FF3F03E0C2
:100A90004346002B2DD1012231004B466140C9B2A3
:100AA00013430F2B34D84D489B00C3589F46002D4D
:100AB00013D104239946033B00279A4691E7002D62
:100AC00005D108239946063BFF279A4689E70C2360
:100AD0009946093BFF279A4683E7280002F06AFB04
:100AE0007627431F9D4000237F4299469A463F1A2E
:100AF00077E7404602F05EFB4246431F9A4076236A
:100B00005B4290461B1A00227DE7FF2303227AE70F
:100B10000E00FF200025ACE70120C01A1B28A6DC30
:100B20009E372A00BD40C2406B1E9D4115436B0796
:100B300004D00F232B40042B00D004356B0144D587
:100B40000120002595E7FF20002592E7802500265B
:100B5000FF20ED038DE7002398468020C003054267
:100B600009D04346034206D1454605436D0226009F
:100B7000FF206D0A7DE78020C00305436D02FF2042
:100B80006D0A76E742466B015001834219D21B225F
:100B90000025013F01261C006D005B00002C01DBDD
:100BA000984201D81B1A3543013A002AF3D15A1E44
:100BB00093411D433B007F330E00002B00DD41E7D6
:100BC000AAE71A2201251B1AE4E7AD0100206D0AED
:100BD0004FE7C046F0D90008FFFFFFF730DA000802
:100BE00070B5420045024E024C00C30F6D0A012051
:100BF000120E760A240EC90FFF2A06D0FF2C03D04E
:100C0000A24201D1B54206D070BD002DFCD1FF2C0F
:100C1000FAD1002EF8D18B4206D00120002AF3D160
:100C20002800431E9841EFE70020EDE770B5420031
:100C300045024E024C00C30F6D0A120E760A240EB6
:100C4000C80FFF2A1BD0FF2C0ED0002A1BD1002C6E
:100C500001D1002E1CD0002D0CD083421CD00221CB
:100C6000581E0840013870BD002E22D1002AF4D150
:100C7000002DF2D10028F6D101204042F3E7002DEB
:100C800017D1FF2CF0D0002CE7D1002EE5D1E6E7FC
:100C90000020002DE7D0E2E7A24205DCEADBB54206
:100CA00002D8E7D30020DEE7434258414000013834
:100CB000D9E702204042D6E770B5420045024E0215
:100CC0004C00C30F6D0A120E760A240EC80FFF2ABD
:100CD0000BD0FF2C0DD0002A1FD1002C16D1002ED6
:100CE00014D10020002D10D009E0002D0CD1FF2CD4
:100CF00013D1002E08D1002A08D0834212D002213D
:100D0000581E0840013800E0022070BD002DF4D1CB
:100D10000028FAD101204042F7E7002CEDD1002E47
:100D2000EBD1ECE7A24205DCF2DBB54202D8EFD30F
:100D30000020EAE74342584140000138E5E7C04659
:100D4000F0B54F464646D64644024500C0B5640A53
:100D50000F1C2D0EC60F002D00D18DE0FF2D00D1F0
:100D600092E00023802099469A46E400C0040443A0
:100D70007F3D7802430A98467B001B0EFF0F002B35
:100D800000D170E0FF2B00D186E04246D0008022E7
:100D90007F3BED180023D204024390469C4631006D
:100DA0004B467940681C0F2B1CD8764A9B00D358C1
:100DB0009F4639004446E2465346022B0FD0032B90
:100DC00000D1D7E0012B37D100200024C0052043FB
:100DD000C9070843E0BCBA46B146A846F0BDFF20AB
:100DE0000024F3E7260C2404220C44462404240C9B
:100DF000434627001B0C574374435A435E43121962
:100E00003B0C9B189C4203D98022520294466644B4
:100E10003F041A043F0CD2199401671EBC411B0CFD
:100E2000920E9B1914439B011C431B0100D49BE0B1
:100E3000012362081C40144302007F32002A64DD53
:100E4000630704D00F232340042B00D00434230174
:100E500003D502004C4B80321C40FE2ABFDCA401AB
:100E6000640AD0B2B2E74346002B3DD14A46013373
:100E70001A4391469C4692E7002C29D104239946B7
:100E8000033B00259A4674E7002C1BD108239946A2
:100E9000063BFF259A466CE74346FF35002B0BD1F6
:100EA00002234A461A4391469C4678E7534631004E
:100EB000022B00D083E792E703234A461A43914668
:100EC0009C466CE70C239946093BFF259A4650E760
:100ED000200002F06FF97625431F9C4000236D42ED
:100EE00099469A462D1A44E7404602F063F9424675
:100EF000431F9A4000232D1A90469C46763D4EE7AC
:100F000080240021FF20E40360E701239B1A1B2BB0
:100F100000DD59E722009E30DA4084401300621E53
:100F200094411C43630704D00F232340042B00D0BB
:100F3000043463011AD50120002447E78020C00350
:100F4000044209D04346034206D1444604436402A6
:100F50003900FF20640A39E78020C003044364029B
:100F60003100FF20640A31E7280065E7A401002072
:100F7000640A2BE78020C00304436402FF20640A54
:100F800024E7C04670DA0008FFFFFFF7F8B5CE4649
:100F9000474643025B0A4E02DA009446720A9146C3
:100FA00045004A0080B52D0E1F00C40F120EC90F58
:100FB000B609FF2A5BD0012041408C4239D0A81AE3
:100FC00000285ADD002A6AD0FF2D00D1D9E0802206
:100FD000D20416431B2800DCE9E001206346181AFE
:100FE000430100D4B4E080018709380002F0E2F840
:100FF00005388740854200DCCCE02D1AB5483840E2
:10100000430704D00F230340042B00D004304301D6
:1010100000D4A0E06A1CFE2D00D18DE08001470ABB
:10102000D2B2D0053843E4072043C0BCB946B0462D
:10103000F8BDA81A8046002845DD002A70D0FF2D93
:1010400000D19EE08023DB041E4343461B2B00DCC3
:10105000D2E00120604443017AD50135FF2D6BD0E9
:1010600001239D4A0340400810401843C8E7002E62
:1010700020D08C4223D02800FF38002839D0571BBD
:10108000002D00D09DE06346002B00D1DBE07B1EED
:10109000012F00D10DE1FF2F71D01F0098E0002E2D
:1010A00000D1A7E0421E012800D1E6E0FF2868D069
:1010B00010008FE701204140A14200D07FE7FF20D0
:1010C00040428046A8444046002838D0511B002D9D
:1010D00000D1AEE0FF2A00D1DFE080236046DB04D0
:1010E000184384461B2900DCD9E001201500801933
:1010F000B1E7FE206A1C104271D1002D00D0A6E09D
:101100006346002B00D1D9E00022002E00D188E7F1
:10111000981B430100D4E1E063460C00F01A6FE72E
:10112000002E00D1B7E00200013A012800D19CE076
:10113000FF2826D0904688E7FF22002771E7FE208F
:101140006A1C104264D0FF2AF6D01500664470086D
:10115000430700D056E7C308FF2D12D05B025F0A99
:10116000EAB25EE76246002A00D196E0002E08D07F
:101170008022D203134204D04846104201D10C0011
:101180004B46002BD8D08027FF031F437F02FF224E
:101190007F0A46E720233A00451B38000135EA4024
:1011A0005D1BA840431E98410025104328E72023DB
:1011B0001B1A32009E40C2403000431E984110432B
:1011C0000CE7FF2ADBD080236046DB04184384460B
:1011D0001B2F56DD01200C001500301A00E7634676
:1011E0009F1B7B013DD4002F00D0FEE6002400228F
:1011F000002716E70500AFE7320043464146DA40D4
:1012000020235B1A9E403000431E9841104321E783
:10121000002DA7D16346002B59D00022002E00D10B
:10122000FFE630006044430192D52A4B0135184057
:101230008EE76346002B47D04B1E012915D0FF29AE
:101240002BD019004EE70C004B463D0084E7624668
:10125000002A8BD1002E92D180270024FF22FF0389
:10126000DFE663460C00F71ABFE630006044012554
:10127000430100D46CE70225F2E663460125981B82
:10128000AEE6202364466046FC40DF1BB840431EA8
:10129000984120439FE705005EE74B4671E7202316
:1012A00065466046CD40591A8840431E9841284300
:1012B0001CE763460C000125F01A91E6002E95D03C
:1012C0000C004F460022ACE64B460D0044E74F466B
:1012D0000022A6E6FFFFFFFBFFFFFF7D002800D0F6
:1012E00036E7002400279CE641024200C30F490A6A
:1012F0000020120E7E2A03DD9D2A02DD094A98187D
:101300007047802000040143952A07DC9620821A4A
:10131000D1404842002BF3D10800F1E7963A9140C2
:10132000F7E7C046FFFFFF7FF8B5002813D0C317CB
:10133000C6185E40C40F300001F03CFF9E2305003C
:101340001B1A962B0FDC082801DD083DAE40760203
:10135000760AD8B202E0002400200026C0053043FF
:10136000E4072043F8BD992B0CDD05223100121A49
:10137000D1400A00010030001B318840411E8841E5
:1013800002431600052D12DC31000D4F3940720763
:1013900009D00F203040042805D004314A0102D57D
:1013A0009F2339405B1B89014E0AD8B2D6E76A1FDA
:1013B00096403100024F39407207F4D0E9E7C04649
:1013C000FFFFFFFB70B5051E0ED001F0F3FE9E235C
:1013D00004001B1A962B0CDC082801DD083CA540F4
:1013E0006D026D0AD8B201E000200025C005284337
:1013F00070BD992B09DD020029001B3291404A1E65
:1014000091410522121AD5400D43052C12DC29000A
:101410000C4E31406A0709D00F202840042805D01F
:1014200004314A0102D59F2331401B1B89014D0A1B
:10143000D8B2DBE7621F95402900024E31406A07AF
:10144000F4D0E9E7FFFFFFFBF0B54F464646D6462E
:101450000D000400C0B51F0011002803620F400AF0
:1014600010437A00520DE3003C039146640AFA0FE0
:101470004F0F6E0027439246B846760DED0FC90018
:10148000954200D199E04C46341BA446002C00DC68
:101490007CE04A46002A00D1B8E0C54A964200D115
:1014A0001CE180223C0012041443A0466246382A04
:1014B00000DD61E11F2A00DDCCE164462022121B21
:1014C000444694400F00A14664469140E7404C4694
:1014D0004A1E91413C43424621436446E240801A01
:1014E0005C1AA3429B415F42C71B3B0200D4D0E081
:1014F0007F027F0A002F00D1FFE0380001F05AFE82
:1015000001000839202322005B1A8F40DA408C400A
:101510001743B14200DAFFE0891B4B1C1F2B00DD93
:10152000A8E020223900D21A200094409140D840EF
:10153000621E9441DF40002601430C43630709D03B
:101540000F232340042B05D0231DA342A441644252
:101550003F191C003B0200D49EE0954B01369E4291
:1015600000D1B7E0934AE40817407B0771057F027A
:1015700023433F0B4A0D12053A43ED072A43180057
:101580001100E0BCBA46B146A846F0BD002C4BD0D5
:101590004C46A41BA446002E00D023E104001C43AB
:1015A00000D1AFE16246541E012A00D115E2804D00
:1015B000AC4500D1C8E1A4461BE14A46B21A9446A4
:1015C000002A00DCACE04A46002A43D0784A964222
:1015D00000D1AFE180223C0012041443A0466246D1
:1015E000382A67DC1F2A00DC5FE14746203AD740F3
:1015F0006246202A05D064464022121B444694408D
:1016000021434A1E91410C003C4357E03A000A43F3
:1016100000D105E12200013A012C00D182E1644CA5
:10162000A4455BD0944641E7634C771C274200D029
:10163000C4E004001C43002E00D069E1002C00D15E
:10164000BFE144460C4300D0D0E14207DB0813431E
:10165000C00829E03A000A4300D170E162466446BE
:10166000013A012C00D1E0E0514CA44500D161E1E8
:101670009446B4E73A001F39CA401100202B03D02A
:101680004022D31A9F403C43631E9C410027002602
:101690000C43630700D053E7B446E4087B072343B9
:1016A000F808434A94451DD06246070352053F0B94
:1016B000520D60E744460C43621E9441E4189C427C
:1016C0009B415F423F183B02E3D5394B01369E42B6
:1016D00000D0B5E03200002700234CE74207DB08CA
:1016E0001343C0081A00024300D1E1E180273F0301
:1016F00007433F032E4A3F0B3DE7200001F05AFD10
:10170000010018311F2900DCFCE60838844027005E
:101710000024B14200DBFFE6264A761A17400DE7A7
:10172000002A2FD04A46921B9446002E00D1ADE0ED
:101730001F4A914500D10FE18022120410436246F6
:10174000382A00DD0FE11F2A00DD80E164462022F7
:101750001E00121B6746040093409440FE405A1E30
:101760009341F84034431C43804464188C42BF4189
:101770007F424E464744A6E742460A4311004A1EAE
:101780009141ADE60C4C721C224200D0A1E0020057
:101790001A43002E00D0FAE0002A00D145E13A00B9
:1017A0000A4300D046E14207DB081343C0087BE749
:1017B000FF070000FFFF7FFFFE07000047465C1A9F
:1017C000C21BA342BF417F42B94617004A46BF1A17
:1017D0003A0200D58DE023003B4300D08AE600208A
:1017E000002561E7B44CA14500D1ADE0802424047C
:1017F00020436446382C3DDC62461F2C00DDB7E0F8
:1018000020251E002D1B0400AB40AC40D640D0402C
:1018100042465D1EAB413443121A904623432CE0EE
:101820004207DB081343C0083BE75C189C429B411E
:1018300040445B42C71801263B0200D429E7022638
:101840009E4A63081740012214401C43FB071C43B7
:101850007F0873E64446203AD4406246202A05D0E9
:1018600067464022D21B4746974039434A1E914162
:10187000214335E60343581E8341CC1AA142BF41A0
:1018800043467F4255464E46DF1B2EE602001A4372
:1018900000D1BDE062466446013A012C00D1E5E08A
:1018A000854CA44558D0944649E764462022121B33
:1018B000444694400F00A14664469140E7404C46A0
:1018C0004A1E91413C4342460C436146CA4080183F
:1018D000F4E6794CA24200D1FDE6591899429B41A9
:1018E00040445F42C719FC07490816000C437F08B3
:1018F000CFE6CC1AA142BF4143467F42181A554653
:10190000C71BF7E5C9087B0755460B43F808C8E62F
:10191000002C00D081E043460B4315D180200025E8
:101920000003E3E65C1AA3429B41C71B5B4201260E
:10193000FF1ADAE54207DB081343C008D2E6420784
:10194000DB081343C008ACE643464246C9085B07C0
:1019500055460B43D008C5E6434642465B07C908D7
:101960000B43D008BEE603431C00631E9C41FCE60B
:101970000200203CE24014006246202A03D04025A9
:10198000AD1AA8400343581E8341234375E7002A3C
:10199000E2D03A000A43CDD04207DB08134380224D
:1019A000C0081203104206D0FC08144203D12000E4
:1019B000CB087A0713435A0FDB005207DB081343A7
:1019C00090E643460B4300D109E743464246C90827
:1019D0005B0755460B43D00866E6CC1AA142894105
:1019E0003F1A4942554601267F1A7EE542465C1A57
:1019F000871AA34292415242BF1A3A023DD5CC1AED
:101A0000A1428941434649421F1A55467F1A95E52E
:101A10007B07C9080B43F80843E64446DB080C4340
:101A200030D142071343C0085CE67B07C9080B436B
:101A3000F80839E65C189C429B4140445B42C71859
:101A40003B0200D425E61D4B01261F4021E6040081
:101A5000203AD4406246202A04D040226646921B97
:101A6000904003435A1E93411C437EE65C188C420F
:101A70008941404449424718DDE623003B4300D1F9
:101A8000ADE606E6440723438024C0082403204231
:101A900008D04246D608264204D155463000CB082D
:101AA00051070B435A0FDB00DB085207134319E6BB
:101AB0000023014A1F005EE5FF070000FFFF7FFFD4
:101AC000F0B557464E464546DE46E0B58146050030
:101AD0000C03480092461F0085B0240B400DCE0F2A
:101AE000002800D156E1D44B984200D172E16B0F2F
:101AF000E4001C4380231B0423439846CF4BED0096
:101B00009B4600239946834400933C037B00504648
:101B1000240B5B0DFF0F002B00D11FE1C64A93423F
:101B200000D162E1C549420F8C46E4005946144396
:101B3000802263441204CB1A14439B46C200002047
:101B400033007B409A464B460F2B27D8BC499B005D
:101B5000CB589F46B246009B022B16D0032B00D1D8
:101B60008EE2012B00D0D9E000230024002552464C
:101B70001B052343D20713432800190005B0F0BC0E
:101B8000BB46B246A946A046F0BD00240025AA4B9C
:101B9000EDE7BA46A04615000090DCE7444500D2C8
:101BA000C7E100D1C2E101235B429C462E004046C2
:101BB0000025E3442302140E1C431B0C9946230406
:101BC0001F0C1202494600920197FEF73FFB0200EC
:101BD0007A430B04310C804619438A4207D901230A
:101BE0005B429C460919E0448C4200D807E2881AFF
:101BF0004946FEF72BFB09048C4631046646019AE0
:101C0000090C4243030031438A4204D90919013BBC
:101C10008C4200D8EDE1881A424612041A439046DD
:101C20004146009B0E041B0C1F000293009B360CC8
:101C30001B04190C0B007343120C7E430391514398
:101C40007A431F0CBC4676186644B14203D9802102
:101C500049028C466244310C8A1831041E04360C49
:101C60008E19904202D312D1B54210D24346591E6A
:101C7000009B9C4665441F009D429B415B421B1993
:101C8000C018844200D2A0E100D19BE18846AE1B7F
:101C9000B542AD41801A6D42401B844200D1D5E16E
:101CA0004946FEF7D3FA019A0B044243310C050072
:101CB00019438A4200D96CE1881A4946FEF7C6FAF0
:101CC000019A360442430904360C03000E43B24223
:101CD00000D953E10398B61A02002D041D43029F58
:101CE0002B041B0C5A437B439C46290C4843130C82
:101CF000844463447943984203D980204002844657
:101D00006144180C12041B04120C41189B188E42DB
:101D100000D2FFE000D1FAE001231D43494A5A44B2
:101D2000002A00DCAAE06B0700D03DE1ED08434645
:101D3000DB0106D54246444B1A4090468022D20031
:101D40005A44424B9A4200DD1FE743465B071D435E
:101D5000434652055C02240B530D08E752462243CA
:101D600000D17BE0002C00D1FAE0200001F022FA43
:101D700002000B3A1D2301009B1A52460839DA4033
:101D80008C40144352468A40314B58449B4683440E
:101D90000020D5E64B462343984644D0002C00D182
:101DA000CEE0200001F006FA010002000B391D23ED
:101DB0005B1A49461000D940083884400B004D4654
:101DC0002343984685402348831A9B46002399461F
:101DD00000939AE64B46234398461DD10823994623
:101DE000063B0025834600938FE65246224309D1E5
:101DF000022349461943184B89469C460024022079
:101E0000E3449DE603234A461A43134B91469C46FE
:101E100052460320E34493E60C239946093BA0462F
:101E20008346009371E60423994600239B460133C1
:101E30000025009369E6C046FF07000001FCFFFF94
:101E4000B0DA0008FF030000FFFFFFFEFE070000FE
:101E5000F30300000DFCFFFF01F8FFFF49460123DB
:101E600019438946002401206AE6002380249A460B
:101E700000258A4B24037AE601256D4201239B1A33
:101E8000382B00DD70E61F2B00DCBFE01F2149422C
:101E90008A1A4146D1400A00202B04D04146804B8B
:101EA0005B4499400D436B1E9D4107232A431D004F
:101EB00000241540134200D1D4E00F21002311402B
:101EC000042900D1CBE0111D9142924152429B184E
:101ED0000A00190200D4C2E001230024002546E6CE
:101EE000802341461B03194208D01C4206D11C43E3
:101EF0002403BA461500694B240B38E68024434678
:101F000024031C432403B246644B240B2FE6002B0E
:101F100000D103E7A619681EA64200D28DE08E42CA
:101F200000D2A3E000D1B3E00500F5E6AA4200D953
:101F300039E64346DE0758086B081E43ED0739E6CD
:101F4000484601F037F901000200153120321C2902
:101F500000DC2CE74B46083883400025984632E7E2
:101F600001F028F903001A00153220301C2A00DC89
:101F700000E75446083B00229C4005E73619013B28
:101F8000B44200D9A6E6B24200D8A3E6831E3619B1
:101F9000A0E60919013D8C4200D98DE68A4200D89D
:101FA0008AE6851E091987E60F232B40042B00D1F2
:101FB000BCE605235B42AB429B4104355B42ED0826
:101FC0009844B4E6AF4200D960E6824204D800D01B
:101FD0005CE6AE4200D859E602235B429C46009B79
:101FE000E0449C4665449D429B415B421B19C018DE
:101FF0004DE68A4200D80EE6831E09190BE68A4296
:1020000000D8F4E5831E98460919F0E52549280013
:1020100059448D4042468A40691E8D414146D84010
:10202000D94002432A430B00510700D151E70F2149
:102030001140042900D046E74BE705008E4200D04E
:102040006AE6009A934200D066E667E6164A5A446A
:10205000002A00DC10E701230025984467E65D07AD
:102060005B021C0BD2080023154380E50098023D5B
:1020700042008242BF417F423C1936190092DDE79F
:102080008024434624031C432403044B240B6EE5A5
:10209000009A9A42EAD30500D3E7C046FF07000042
:1020A0003E0400001E040000FF030000F0B54E4691
:1020B0004546DE4657469046E0B517001A03120B18
:1020C0000500844619480E034C0091465A00DB0F68
:1020D0009B46360B640DC90F520D844219D08242C3
:1020E00010D0012094420ED14E450CD10120C445A0
:1020F00009D1594517D0002C05D130002843431E83
:10210000984100E00120F0BCBB46B246A946A0467B
:10211000F0BD330001202B43F5D1A242F3D14B4651
:102120003B43F0D1E2E70020EDE7C046FF070000A7
:10213000F0B54746CE460400180016001B031B0BE3
:102140002D4D4A00994680B543000F03A446B04682
:102150003F0B520DC90F5B0DC00FAA4221D0AB42FD
:1021600013D0002A22D13C43002B02D14D462E43EE
:1021700022D0002C10D0814222D002200139084008
:102180000138C0BCB946B046F0BD4D462E4329D1FA
:10219000002AF0D13C43EED10028F2D10120404288
:1021A000EFE73D0025431DD19342EED0002BE2D155
:1021B0004C462643DFD1E0E70020002CE1D0DCE7ED
:1021C0009A420ADCE8DB4F45D7D80ED000204F45B5
:1021D000D7D20029E2D00800D3E74342584140005B
:1021E0000138CEE702204042CBE7C445C5D80020E5
:1021F000C445C6D2EDE7C046FF070000F0B547462C
:10220000CE460400180016001B031B0B2C4D4A0081
:10221000994680B543000F03A446B0463F0B520DCC
:10222000C90F5B0DC00FAA420DD0AB4210D0002ADF
:1022300027D13C43002B11D14D462E430ED1002017
:10224000002C15D00EE03D00254310D1934218D14B
:102250004D462E430BD1002A02D13C43002C0BD01B
:10226000814214D0022001390840013800E00220E8
:10227000C0BCB946B046F0BD0028F9D101204042AB
:10228000F6E7002BECD14C462643E9D1EAE79A4227
:1022900004DD4342584140000138E9E79A42EBDB54
:1022A0004F45DFD806D000204F45E1D20029E5D0C8
:1022B0000800DDE7C445D5D80020C445D8D2F5E7ED
:1022C000FF070000F0B557464E464546DE46E0B5EE
:1022D00098460C034B000600924687B0240B5B0D1A
:1022E000CF0F002B00D15CE1D94A934200D175E1B8
:1022F000420FE4001443802212041443D54AC5005F
:10230000944663440093002399469B4643464246C5
:102310001E03D20F5B0050469046360B5B0D00D17A
:1023200020E1CB4A934200D162E1CA49420F8C4678
:1023300000996344F6008C46164380229C441204A4
:1023400063461643C20000200093009943460131C2
:102350008C4649467B4001930F2926D8BE4B890005
:1023600059588F46434601933400150083465B4617
:10237000022B16D0032B00D103E2012B00D0CDE0BD
:10238000002200240025019B12052243DB071A438B
:102390002800110007B0F0BCBB46B246A946A046D3
:1023A000F0BD00240025AA4AEDE7280C2D042D0CD1
:1023B0002B00110C1204120C5343984613002F00EB
:1023C000434399464F434F44BB4647460B003F0C9F
:1023D000BA464343DA440293D14504D980277F02A9
:1023E000B9464B44029353461B0C9B4653461F046D
:1023F00043461B041B0C98463B0043440493330C98
:102400003604360C984633004343994643464343CB
:102410002F009A46434677435D43380C4D44451997
:10242000A94503D980235B029946CA443F04280C7E
:102430003F0C2D04ED19270C2404240C030020006C
:1024400050437A4391463A0053440593030C9A460D
:102450004A43614349445144AB44894503D98023ED
:102460005B0299464A4400040B0C000C090409184D
:1024700020009946434670435C437E435F43030C10
:102480009846A41944444A440397A64204D9802399
:102490005B029846474403972304029E9A46059B95
:1024A0005E449846AE42AD4176188E4289410004A2
:1024B000000C504440446D424719B8469346494287
:1024C0008946C344D94498428041A845AD419345CB
:1024D0009241894589416D4240422843240C524231
:1024E00049420A43039B00198018C7184B46DC0D6C
:1024F000049B75021D436A1E95414B46F60D7F02F3
:1025000035435A023C431543FB0100D41CE1012131
:102510006A080D401543E207154364084F496144BA
:10252000002900DCB0E06B0709D00F222A40042A02
:1025300005D02A1DAA42AD416D4264191500E30180
:1025400004D58021464AC90014406144454A91425D
:1025500000DD26E76207ED08640249051543240BF8
:102560004A0D10E75246324300D17FE0002E00D1E1
:10257000DCE0300000F01EFE02000B3A1D230100DB
:102580009B1A52460839DA408E40164352468A401A
:10259000009B3549181A03008C46634400200093C1
:1025A000D3E6250005434AD0002C00D1B0E020003E
:1025B00000F000FE010002000B391D2310005B1A21
:1025C0003100350008388440D94085400C43264806
:1025D000831A0093002399469B4697E605002543FE
:1025E00026D1082200930223002491469B468DE6C3
:1025F0005246009B324310D1154900268C46634455
:102600004946009302231943894602209DE65B4612
:102610000197022B00D0ADE6C3E60D4A0320944695
:1026200063444A46009303231A43914652468CE67C
:102630000C2200930323050091469B4666E6042383
:10264000994600230093013300249B465EE6C04672
:10265000FF07000001FCFFFFF0DA0008FF030000A5
:10266000FFFFFFFEFE0700000DFCFFFF49460123B0
:10267000194389460026012067E6002380240025AF
:10268000434A019324037EE60120401A382800DDE6
:1026900076E61F285BDD1F2223005242511ACB40F1
:1026A0001900202803D03B4A6244944025436A1E07
:1026B00095412A000A4307210D00002415401142CC
:1026C0005BD00F2100241140042953D0111D9142E9
:1026D00092415242A4180A0023024BD50122002441
:1026E000002550E680231B031C4209D01E4207D15F
:1026F00033431C0343461500240B254A019342E64D
:102700008022120314432403214A240B01973AE642
:1027100000F050FD01000200153120321C2900DCC0
:102720004BE7340008380025844050E700F042FDB4
:1027300003001A00153220301C2A00DC1EE7564622
:10274000083B00229E4023E7009B9C46E6E6124998
:10275000220061442E008D408A40C640691E8D4192
:1027600032432A43C4405307B6D00F2111400429F5
:10277000ACD1B1E765076402240BD20815430022EF
:1027800001E68022120314432403014A240BFAE5D4
:10279000FF0700003E0400001E040000F8B5574685
:1027A0004E464546DE46E0B51E0017004A000B03C4
:1027B000520D5B0A9046420F1A43CD0FCD4C3103A8
:1027C000C300944670007A0F490AFF009A46B94642
:1027D000400DF60F1143A04200D1B1E00122564056
:1027E000B346B54200D188E04246121A002A00DC06
:1027F000AEE0002800D1C1E0BE48804500D151E1E3
:10280000802000040143382A00DD7BE11F2A00DD1F
:10281000EEE120203E00801A0C00D640D1408740D7
:1028200062468440521A781E8741944634432743B7
:10283000DC1BA3429B4162465B42D31A99464B463E
:102840001B0200D418E14B465802430A99464B46F6
:10285000002B00D137E1484600F0ACFC01000839FC
:102860002023220048465B1ADA4088408C404346C9
:102870001043884500DD36E1C91A4B1C1F2B00DDD3
:10288000EAE020222600D21A01009440DE40D8401F
:1028900000239140621E94418146984631430C4387
:1028A000630709D00F232340042B05D0231DA34227
:1028B000A4416442A1441C004B461B0200D4DEE04C
:1028C00041468C4B0131994200D1E7E04B468A48A2
:1028D000E4080340180049055B07400223434A0D02
:1028E000040B1205ED0722432A4318001100F0BC27
:1028F000BB46B246A946A046F8BD4246121A002A77
:1029000052DD002800D19CE0A04500D1CAE0802023
:1029100000040143382A00DD49E11F2A00DC97E169
:1029200010000E002038C640202A04D04020821A11
:1029300091400F43B9464C46621E944134433AE1FC
:102940000A003A4328D0B346B5422BD06B4A4244E2
:10295000002A5DD042464446821A002C00D0F5E0A1
:1029600065461D4300D19CE1551E012A00D1FBE1C3
:10297000604CA24200D1BDE12A00F0E008003843DB
:1029800000D1C3E0501E012A00D1A8E1594CA24257
:1029900000D187E0020036E701225640B346B54237
:1029A00000D021E7554A4244002A00D1B5E0424612
:1029B0004446821A002C00D138E14E4EB04200D17C
:1029C000DEE18026644636043443A446382A00DD1E
:1029D00096E11F2A00DD24E22026B41AA2466446AE
:1029E0005646B440A1461C004E46D440264334000F
:1029F0005646B3405E1EB3411C436346D340C918DC
:102A0000E419BC42BF417F42B94680468944D8E0C0
:102A100040463B4C0130204200D0B4E04046002804
:102A200000D044E16046184300D190E108003843EB
:102A300000D0AAE16146DB0849070B436146CC0898
:102A400027E00800384361D0501E012A00D139E147
:102A5000A24227D002005DE702001F39CA401100E0
:102A6000202B03D04022D31A98400443631E9C417C
:102A70000023994698460C43630700D012E74B4663
:102A80004A46E4085B072343D408424619498A4270
:102A90000ED024035205240B520D22E70A00002415
:102AA00000231EE7DB086246520713436246D40840
:102AB0001A00224300D1FCE18022120314432403B4
:102AC0000C4A240B0DE7200000F074FB01001831C4
:102AD0001F2900DCC4E60838844043462000002457
:102AE000884500DCC8E6044A5B1A104098468146D7
:102AF000D6E6C046FF070000FFFF7FFF01F8FFFF9B
:102B0000FE0700000F437A1E974191E66146DB08FD
:102B100049070B436146CC08B8E74046D34C013027
:102B2000204200D0A2E04046002800D001E16046EB
:102B3000184300D15EE10800384300D05FE16146F0
:102B4000DB0849070B436146CC08A2E7C84DA84201
:102B500000D1CFE0802564462D042C43A446382ABA
:102B600056DC1F2A00DDD1E020251E00AD1A644688
:102B7000AB40AC40D6405D1EAB413443234364467A
:102B8000D440091B49E06046DC1B461AA342804141
:102B90004042814630004E46801B8146000276D47A
:102BA0004B46234300D052E60024002571E7394309
:102BB0000C00621E9441E4189C429B415B426344BA
:102BC00099464B461B0200D456E701239C46A84B6E
:102BD000E044984538D04B46A648012203401800EF
:102BE000630814401C43C3071C434308994657E637
:102BF00010000E002038C640202A04D04020821A3F
:102C000091400F43B9464F467A1E974137430FE62E
:102C100062461A4313005A1E9341FC1AA742BF4151
:102C20007F42CB1B99465D46804608E666461E43BA
:102C300000D1BEE0561E012A00D109E18C4CA2420F
:102C400000D119E13200C1E642460024002348E6E3
:102C500020200C00801A3E0087408440D640781E19
:102C60008741D14034433C438C44A4E7804A90429E
:102C700000D1E9E0DF199F429B4161445B42C918E2
:102C8000CC077F084B08994680463C43F4E6FC1A83
:102C9000A742BF4163467F42C91ACB1B99465D4696
:102CA000D5E5FF084B075D463B43CC08EEE66246A0
:102CB0001A4300D082E00B003B431BD18024002547
:102CC0002403F9E6DC199C429B41614489465B423E
:102CD00099444B461B0244D401239846CCE6DC1BA6
:102CE0006246A3429B41511A5B42CB1A994601238B
:102CF0009846A4E5FF084B075D463B43CC08D7E662
:102D000062461A431400631E9C4179E6150064462E
:102D1000203DEC40A046202A05D040256446AA1A52
:102D2000944023439A465446631E9C4143462343A2
:102D300073E762461A4323D00A003A4300D0A0E06A
:102D40006246DB08520713436246D408B0E60B0024
:102D50003B4300D128E7FF084B075D463B43CC08C7
:102D600097E60223984636E7FC1AA742BF4163461E
:102D70007F42C91ACB1B994601235D4698465EE502
:102D80004B07FF083B43CC0892E6DC1B6046A3429E
:102D9000B641401A7642801B8146000260D5FC1A7B
:102DA000A742BF4163467F42C91ACB1B99465D4685
:102DB00076E5FF084B073B43CC0867E60A00DB08D3
:102DC0003A4300D16FE66246520713436246D40885
:102DD00080221203144207D0C808104204D15D4675
:102DE0000400FB0849070B435A0FDB00DB085207BE
:102DF00013435DE64B07FF083B43CC0849E6DC196B
:102E00009C429B41614489465B4299444B461B026C
:102E100000D431E64A46174B1A40012391469846A2
:102E20002AE616006446203EF440A046202A05D03B
:102E300040266446B21A944023439A465446631E81
:102E40009C4143461C43DBE502000024002348E587
:102E5000DC19BC42BF41614489467F42B94438E72E
:102E60004B46234300D19FE606E6C046FE0700001E
:102E7000FF070000FFFF7FFFFF084B073B43CC0825
:102E800016E66246DB08520713436246D4088022E6
:102E90001203144207D0C808104204D15D46040052
:102EA000FB0849070B435A0FDB005207DB081343AB
:102EB000FEE50023014A1C0013E5C046FF070000A1
:102EC00070B505000C481C0316005B000A0349009E
:102ED000120B490D240B5B0D814208D0064A0020DD
:102EE000934203D120003043431E984170BD01201E
:102EF0002A43FBD1F2E7C046FF0700000A0030B5C5
:102F0000134C530009030500090B00205B0DD20F81
:102F1000A34204DD0F48834202DD0F4BD01830BDC1
:102F20008020400301430D48C01A1F2808DD0C48CB
:102F3000C31AD9400B005842002AF0D11800EEE71E
:102F4000084CC540A446634499400B002B43F2E76C
:102F5000FE0300001D040000FFFFFF7F330400009C
:102F600013040000EDFBFFFF70B5002816D0C31757
:102F7000C5185D40C40F280000F01CF9114A121A50
:102F80000A2816DC03002E0015339E400B23181A66
:102F9000C54052052D032D0B530D03E000240023E3
:102FA000002500261B052B43E407234330001900AE
:102FB00070BD0B38854052052D0300262D0B530D97
:102FC000F0E7C0461E04000010B5041E10D000F04B
:102FD000F1F80F4B1B1A0A2811DC0B222100121AE0
:102FE000D14015300A035B058440120B5B0D01E0F4
:102FF000002300221B0513432000190010BD2200EE
:103000000B3882405B0512030024120B5B0DF1E7C5
:103010001E04000070B543004602C40FFE201B0EC4
:10302000591C750A08420CD0E022920094466D07A4
:10303000360B63441B053343E40723432800190080
:1030400070BD002B14D1002D1BD0280000F0B2F869
:103050000A281CDC0B232E001B1ADE40030015334C
:103060009D400E4A3603121A5205360B530DE1E706
:10307000002D09D08022360B1203094B6D07164331
:10308000D8E700230026D5E70026054BD2E703004A
:103090000B3B9D402E000025E3E7C046890300005E
:1030A000FF07000002004B00F0B55B0D0C033D4E26
:1030B000640A400F5F1CC90F0443D50037420AD091
:1030C00039481E18FE2E16DDFF200024C0052043BF
:1030D000C9070843F0BD002B06D12C4326D005229A
:1030E0009201540AD8B2F1E72543EDD08020C00305
:1030F0000443FF20EAE7002E1BDD9201531E9A4194
:10310000E4006D0F22432A43530748D00F23134096
:10311000042B00D004328023DB0413403FD0701C0A
:10312000FE2ED1D09201540AC0B2CFE70020002475
:10313000CCE73200173222DB8020000420431E241B
:10314000A41B1F2C1DDD02225242961B0200F240DE
:103150001600202C04D0154A944663449840054339
:103160002A00531E9A41324300265307CED18024B1
:103170001300E404012023402242D3D1B0E700230E
:10318000ADE70B4A94462A00E24014002A0063444B
:103190009A409840551EAA4102432243E4E7330077
:1031A0009EE7C046FE07000080FCFFFFA2FCFFFF79
:1031B00082FCFFFF1C2101231B04984201D3000C59
:1031C00010391B0A984201D3000A08391B0998429A
:1031D00001D30009043902A2105C40187047C046B0
:1031E00004030202010101010000000000000000D0
:1031F000F0B5C64600B58AB01422002105A805F036
:10320000BDFE364B596980200003014359615A695C
:1032100002400192019A59698020C003014359611B
:103220005A6902400292029A596980208002014341
:1032300059615A6902400392039A5A698021C9026E
:103240000A435A615B690B400493049B9023DB059E
:10325000984600228021180000F0F3FD204F002244
:103260004021380000F0EDFD1E4D002220212800F5
:1032700000F0E7FD80239B0105930024069407944A
:1032800005A9380000F008FD802305930126069665
:103290000794089405A9404600F0FEFC80231B0219
:1032A00005930694079405A9280000F0F5FC402337
:1032B000059306960794089405A9380000F0ECFCE5
:1032C0002023059306960794089405A9280000F08A
:1032D000E3FC0AB080BCB846F0BDC0460010024016
:1032E000000800480004004870B50400234B1A6829
:1032F000036893420ED0224B1B682168994216D076
:1033000020490968206888421ED022681E4B9A42D4
:1033100030D070BD1368DB0604D41C498B680133C0
:103320008B60E8E719498B68013B8B60E3E719681C
:10333000C90604D41548C1690131C161E0E71348E9
:10334000C1690139C161DBE7116810221140481ED3
:1033500081410E4801741B681A40531E9A41242370
:10336000C254002503E0E8B205F096FC0135012DBA
:10337000F9DDCAE700F030FCCBE7C046C00400200E
:10338000080500203004002000480140DC17002020
:1033900072B6FEE700B599B0342200210BA805F003
:1033A000EDFD1022002107A805F0E8FD1C220021F8
:1033B000684605F0E3FD20230B931F3B13930BA8F6
:1033C00001F060FD002818D107230793043B089300
:1033D000002309930A93012107A802F045F8002869
:1033E0000DD180239B02009300230693684602F0D0
:1033F0000FF9002805D119B000BDFFF7C9FFFFF78D
:10340000C7FFFFF7C5FF000010B500F0D5FBFFF7C1
:10341000C1FFFFF7EDFE04F01DFD00F051F900F0D3
:1034200019F900F085F900F095FA00F017FB05F0A6
:10343000B5F805F059FA05F0A1F80DE02201094BA5
:103440009B18187B210005F0F5F80134012CF5DDFF
:10345000FA20800000F0D2FB2021034800F0F7FCA6
:103460000024F3E7541700200004004882B00A4B00
:10347000996901221143996199690A400092009A61
:10348000DA69802149050A43DA61DB690B4001935F
:10349000019B02B07047C0460010024030B587B0B3
:1034A0000500204A91698020C0020143916193691F
:1034B00003400093009B01A902A802F08DF8059B30
:1034C000002B16D102F078F81749FCF739FE431E9D
:1034D0001648174A0260174AC2604360002303611E
:1034E0008360836102F070FB041E06D0200007B0E9
:1034F00030BD02F061F84000E6E70C4802F02AFA1D
:10350000041EF3D1162000F0BBFB032D01D90124CA
:10351000ECE700222900162000F082FB064B1D601C
:10352000E4E7C0460010024040420F009C03002028
:1035300000480140E703000008000020FEE7FEE726
:10354000704770477047000010B5024802F03DFA1E
:1035500010BDC046C004002010B5024802F035FA84
:1035600010BDC0460805002010B5024802F02DFA33
:1035700010BDC0463004002010B5024802F025FA04
:1035800010BDC0469C03002010B5024801F028FA87
:1035900010BDC046401200200120704710B505F054
:1035A000C3FC162303600120404210BD10B5012169
:1035B0004942FFF7F3FFFEE770B50C001600002547
:1035C00004E000E000BF207001350134B542F8DBB3
:1035D000300070BD70B51600002405E04D1C087861
:1035E00000E000BF01342900B442F7DB300070BDB9
:1035F00001204042704780239B014B6000207047B0
:10360000012070470020704710B503000C4A0D4997
:10361000521A0D490968002907D00B490868C318D8
:10362000934206D8084A136010BD0749074808604E
:10363000F3E705F079FC0C23036001204042F3E737
:103640000040002000040000E40300205019002086
:103650007047000000B58DB02422002103A805F0BA
:103660008DFC0822002101A805F088FC1248802367
:10367000DB050360002343608360104AC26003617E
:10368000836103330393023B0593099303A902F07B
:10369000F3FA00280AD100230193029301A90648F6
:1036A00002F0D8FD002804D10DB000BDFFF770FE78
:1036B000F1E7FFF76DFEF7E7C00400201F4E0000A2
:1036C00000B58DB02422002103A805F057FC082284
:1036D000002101A805F052FC1248134B036000239F
:1036E00043608360114AC2600361836103330393C3
:1036F000023B0593099303A902F0BEFA00280AD100
:1037000000230193029301A9064802F0A3FD0028BB
:1037100004D10DB000BDFFF73BFEF1E7FFF738FE27
:10372000F7E7C04608050020000400401F4E0000D7
:1037300010B50948094B03602F23436000238360C1
:10374000074AC2600361836102F03EFA002800D19B
:1037500010BDFFF71DFEFBE73004002000200040F5
:10376000204E000000B585B003681A4A934207D086
:10377000194A93420FD0194A93421FD005B000BD99
:10378000174A9169802000010143916193690340C8
:103790000193019BF2E7124AD16980204000014366
:1037A000D161D36903400293029B00220321ED38CB
:1037B00000F036FA132000F063FADFE7084A916957
:1037C0008020400201439161936903400393039B6E
:1037D000D4E7C046002C01400020004000400140DA
:1037E0000010024010B58AB004001422002105A880
:1037F00005F0C4FB23688022D205934204D0314AED
:10380000934226D00AB010BD2F4BD9690122114333
:10381000D961D9690A400092009A5A6980218902C7
:103820000A435A615B690B400193019B0323059393
:10383000013B06930993902005A9C00500F02CFADE
:10384000002202210F2000F0EBF90F2000F018FAFF
:10385000D8E71D4BDA6902242243DA61DA69224093
:103860000292029A596980208002014359615A6983
:1038700002400392039A5A69802109030A435A615C
:103880005B690B400493049B4023059306943F3BE4
:103890000993902005A9C00500F0FEF98023059347
:1038A0000694002307930893099305A9074800F09D
:1038B000F3F900220221102000F0B2F9102000F0EC
:1038C000DFF99FE7000400400010024000080048B4
:1038D00010B588B004001422002103A805F04EFBA7
:1038E0002368194A934204D0184A934217D008B06B
:1038F00010BD174A5169802080020143516153690C
:1039000003400193019BC0239B0003930223049374
:103910000793902003A9C00500F0BEF9E7E70C4A21
:103920005169802080020143516153690340029331
:10393000029B0C2303930A3B0493902003A9C00528
:1039400000F0AAF9D3E7C046002C01400040014036
:103950000010024000B597B01022002112A805F017
:103960000DFB0822002110A805F008FB1C220021F5
:1039700009A805F003FB2022002101A805F0FEFAAA
:103980003348344B03602F23436000238360324A63
:10399000C26003614361836102F016F9002842D1DD
:1039A00080235B01129312A9294802F08BFA0028A8
:1039B0003CD1274802F034F900283AD10023109373
:1039C000119310A9224802F045FC002834D160234D
:1039D000099300230A930B930C930D930E930F936B
:1039E000002209A91A4802F0E9F9002827D1042287
:1039F00009A9174802F0E2F9002823D10023019316
:103A000002930393049305938022920106920893F4
:103A100001A90F4802F054FC002816D10C48FFF70A
:103A200057FF17B000BDFFF7B3FCB9E7FFF7B0FCD5
:103A3000BFE7FFF7ADFCC1E7FFF7AAFCC7E7FFF759
:103A4000A7FCD4E7FFF7A4FCD8E7FFF7A1FCE5E764
:103A5000E8030020002C0140E703000000B597B008
:103A60001022002112A805F089FA0822002110A8CE
:103A700005F084FA1C22002109A805F07FFA202213
:103A8000002101A805F07AFA3348344B03602F2354
:103A9000436000238360324AC260036143618361F3
:103AA00002F092F8002842D180235B01129312A900
:103AB000294802F007FA00283CD1274802F0B0F864
:103AC00000283AD100231093119310A9224802F044
:103AD000C1FB002834D16023099300230A930B9380
:103AE0000C930D930E930F93002209A91A4802F02C
:103AF00065F9002827D1042209A9174802F05EF9C8
:103B0000002823D100230193029303930493059388
:103B1000802292010692089301A90F4802F0D0FB7F
:103B2000002816D10C48FFF7D3FE17B000BDFFF7F1
:103B30002FFCB9E7FFF72CFCBFE7FFF729FCC1E733
:103B4000FFF726FCC7E7FFF723FCD4E7FFF720FCCD
:103B5000D8E7FFF71DFCE5E77804002000400140AE
:103B6000E70300000D4885460D480E490E4A002324
:103B700002E0D458C4500433C4188C42F9D30B4A21
:103B80000B4C002301E013600432A242FBD3FFF789
:103B90005FFD05F0CFF9FFF737FCFEE7004000209E
:103BA000000000208003002004E1000880030020C2
:103BB0004C190020FEE7000010B5064A13681021DA
:103BC0000B4313600320FFF769FCFFF74FFC002055
:103BD00010BDC04600200240034A1168034B1B7809
:103BE0005B1813607047C046500500200400002099
:103BF000014B18687047C0465005002070B504009E
:103C0000FFF7F6FF0500631C02D0044B1B78E41895
:103C1000FFF7EEFF401BA042FAD370BD0400002066
:103C200070B5002811DB8308134EC0339B009D59EB
:103C300003242040C000FF2214008440A5438901D2
:103C40000A4082402A439A5170BD0F230340083B2B
:103C50009B0806339B00094A944663445C68032230
:103C60001040C000FC3215008540AC4389010A4079
:103C7000824022435A60E7E700E100E000ED00E007
:103C8000002805DB1F2318401E3B8340014A1360B8
:103C90007047C04600E100E0F0B583B0002357E074
:103CA00084685F000326BE40B4432600CC68BC4055
:103CB00034438460446894434A68160901223240C0
:103CC0009A402243426053E0DC080834A40026589E
:103CD00005321A4092000F279740BE430F69974064
:103CE0003A003243225057E0042600E00026A64066
:103CF00034003C4302329200474E9451474A1468C4
:103D0000EA432600AE434F68FF0301D52C4326004B
:103D1000424C26606468260016404F68BF0301D5F8
:103D20002C4326003D4C6660A468260016404F6870
:103D3000FF0201D52C432600384CA660E4682240DF
:103D40004E68B60201D52A002243344CE2600133AA
:103D50000C682200DA405CD001229A402500154010
:103D60001442F4D003244E683440013C012C97D90E
:103D700003224C682240032A09D0C2685E00032453
:103D8000B440A24314008A68B2402243C2600322B6
:103D90004C682240022A97D004685E000322170074
:103DA000B740BC434F683A40B24022430260C02251
:103DB00092024C681442CAD0194CA66901221643DB
:103DC000A661A46922400192019A9A08941CA40059
:103DD000114EA75903261E40B4000F26A640B74334
:103DE0009026F605B04281D00E4EB0420BD00E4E5A
:103DF000B0420AD00D4EB04209D00D4EB04200D1B3
:103E000072E7052673E7012671E702266FE70326AE
:103E10006DE703B0F0BDC046000001400004014062
:103E2000001002400004004800080048000C004850
:103E30000010004803690B4201D0012070470020A8
:103E4000FCE7002A01D0816170478162FCE742698A
:103E500013000B401B04914319438161704700001C
:103E600070B553043ED504685023E35A0D78EE0034
:103E70009B191B193A4CA44663441C88A405A40D45
:103E80008B69A34224D31B1B8B618B69002B0DD143
:103E9000AD0003689C4665442E88324B1E4080234B
:103EA0009B015E40304B33439BB22B8053060BD5B6
:103EB0000A78920003689C46624413882B4D1D408B
:103EC0002B4B2B439BB21380002C04D1200070BDE0
:103ED00000238B61D9E700680A894969230003F050
:103EE00095F8F3E704685023E35A0D78EE009B1928
:103EF0001B19204CA44663441C88A405A40D8B699F
:103F0000A34229D31B1B8B618B69002B0DD1AD0004
:103F100003689C4665442E88124B1E4080239B01FB
:103F20005E40114B33439BB22B8053060BD40A786F
:103F3000920003689C46624413880C4D1D400C4B54
:103F40002B439BB21380002CC0D000684A8949697A
:103F5000230003F05BF8B9E700238B61D4E7C04688
:103F6000020400008FBFFFFF8080FFFF8F8FFFFFE5
:103F7000C080FFFF0604000070B586B0041E69D043
:103F8000354BC35C002B07D0334B0322E25420682F
:103F900002F0D8F900211EE0AA239B000022C2549F
:103FA00004F070F8F0E74D1CAB005A19D200A218CB
:103FB000012050705A19D20011558A005018C000C3
:103FC0002018C1865B19DB00E3180026DE708663CB
:103FD000C6630664E9B260688142E4D3002119E057
:103FE0008A005318DB00E3181E006A36FF360025EE
:103FF0003570013E3170033635700D3635607D33D6
:10400000FF331D605218D200A2188132FF321560B2
:104010000131C9B28842E3D8230010336A4623CB6A
:1040200023C203CB03C26168A268E368206802F080
:1040300093F924230022E254074B0132E254E3694E
:10404000012B02D0002006B070BD200000F003FF5D
:104050000020F8E70120F6E7A902000070B504008F
:10406000AA239B00C35C012B0DD0AA25AD00012320
:104070004355006802F05CF9206802F035FC00232B
:104080006355002070BD0220FCE7000070B50500FC
:104090000C001600530600D4ECE002685023D35AFB
:1040A0000978C8001B189B18AB4A944663441A88C9
:1040B0009205920DA369934241D99B1AA361A3690A
:1040C000002B5AD16378002B3CD12B6850229A5A8E
:1040D0009B18C018A04B9C46604403889F4A13401D
:1040E000038003889E4A13439BB203802B68627847
:1040F000002A34D15032995A59182378DB005B18C2
:10410000984A944663441A8894490A401A801A8847
:1041100093490A4392B21A802178280003F0ECFFF9
:1041200073043BD5227892002B689C466244138826
:104130008D4919408D4B0B439BB213802EE0002319
:10414000A361BCE7012BD1D12B6850229A5A9B184E
:10415000C018814B9C46604400230380C6E7012AB7
:10416000DAD14F329A5A9B182278D200D3187D4A5E
:104170009446634400221A80CEE773040AD589006E
:104180002B689C4661440B8877481840774B034363
:104190009BB20B802423E35C012B0FD0296823788A
:1041A0009B00C9180B88724A1340302253409BB2BF
:1041B000704A13439BB20B80002070BD63699B184B
:1041C0006361E3699B18E361216A236999421AD309
:1041D000C91A21626278002A36D12A685021505AC1
:1041E00010182278D20012185B498C466244002BCA
:1041F00015D1118859480140118011885848014350
:1042000089B2118022E0002903D12423E154130054
:10421000E0E700232422A35423620B00DAE73E2BBD
:1042200007D85908D80700D50131890289B2118011
:104230000CE05909D80600D10139890289B24848F1
:10424000014389B2118001E0012A06D09BB2228984
:104250006169286802F056FBA0E72A685021505A8D
:1042600010182278D20012183B498C46624499B249
:104270001180EBE702685023D35A0978C8001B1855
:104280009B18384A944663441A889205920DA36994
:10429000934242D39B1AA361A369002B6CD163782C
:1042A000002B3DD12B6850229A5A9B1818182A4B84
:1042B0009C4660440388294A134003800388284AA7
:1042C00013439BB203802B686278002A35D15032A9
:1042D0009A5A9B182278D2009B18224A944663442B
:1042E0001A881E490A401A801A881D490A4392B248
:1042F0001A802178280003F0FFFE730400D54DE7F3
:10430000227892002B689C46624413881649194013
:10431000164B0B439BB2138040E70023A361BBE71E
:10432000012BD0D12B6850229A5A9B1818180A4B8F
:104330009C46604400230380C5E7012AD9D14F324F
:104340009A5A9B182278D2009B18064A94466344D6
:1043500000221A80CDE7C04602040000FF83FFFF61
:104360000080FFFF060400008F8FFFFF80C0FFFF6B
:10437000BF8FFFFF8080FFFF73040AD489002B6882
:104380009C4661440B8833481840334B03439BB22F
:104390000B802423E35C012B00D0FFE663699B18AC
:1043A0006361E3699B18E361216A236999421AD327
:1043B000C91A21622A686178002935D15031515AD1
:1043C00052182178C900521824498C466244002BA7
:1043D00015D11188224801401180118821480143DC
:1043E00089B2118022E0002903D12423E154130073
:1043F000E0E7002323622422A3540B00DAE73E2BDC
:1044000007D85908D80700D50131890289B211802F
:104410000CE05909D80600D10139890289B2114846
:10442000014389B2118001E0012906D09BB2628963
:104430006169286802F066FAB0E64F31515A5218A5
:104440002178C900521805498C46624499B21180FE
:10445000ECE7C0468F8FFFFF80C0FFFF060400001F
:10446000FF83FFFF0080FFFFF8B5CE46474680B5CB
:104470000400B6E00388C24A1A40C24B13439BB201
:10448000038021685023CB5A2822A25CD2009B18BB
:104490005B18BD4A944663441B889B059B0D63646F
:1044A000E26B94466344E3630021200003F024FEA2
:1044B0002423E35C002B00D193E0236C002B00D07D
:1044C0008FE02422A35C802149420B43DBB2CC3134
:1044D000206843520023A35483E05023C35AB422DC
:1044E0005200A25CD2009B181B18A84A9446634451
:1044F0001B889B059B0D22006932FF32D361AC21E2
:1045000089006118D28802F081FD22681388A049D1
:104510000B4080210B439BB21380200003F0D2FD9F
:104520005FE03E2A07D85108D20700D50131890241
:1045300089B21980B5E05109D20600D1013989024A
:1045400089B2904A114389B21980AAE0AE0080195D
:1045500003889FB21BB2002B00DAAEE03B0640D5C9
:10456000681C83001918C9008846A0442268944634
:104570006644328882491140824A0A4392B23280AC
:104580004346DB78022B00D1BBE1AB005B19DB00BB
:10459000E31800221A647B0600D47FE143465B786F
:1045A000002B00D066E123685022995A59188200E6
:1045B0001218D200135DDB005B18734A9446634403
:1045C0001A8874490A401A801A886E490A4392B2BE
:1045D0001A806B1C9D00ED18ED00295D200003F092
:1045E0008BFD20684423C35A1BB2002B00DBCFE1B4
:1045F0004423C35A99B20F221D0015401342A5D17E
:10460000CB0600D436E7028893B2120500D564E7E2
:104610001BB2002BE5DA03885D4A13408022134366
:104620009BB2038020685023C35AB4225200A25C7C
:10463000D2009B181B18554A944663441B889B055F
:104640009B0D22006932FF32D361002B0FD05169DC
:1046500000290CD01500D28802F0D8FC6B69EA69F9
:10466000944663446B610021200003F036FD23680B
:104670001A881205B5D450229A5A9B18434A944678
:10468000634422006932FF321269002A00D048E7F1
:104690001A8840490A401A801A883A490A4392B255
:1046A0001A8021680A883C4B1A40C0239B015A405B
:1046B0003A4B13439BB20B8093E70388344A134071
:1046C000802213439BB203807219D2006932FF32F9
:1046D0009046A0447319DB00E3187533FF331B7851
:1046E000002B5DD120685033C25A7319DB00E318E8
:1046F0006933FF331B78DB00D3181B18234A944619
:1047000063441B889B059A0D9146002B2AD14B468A
:10471000AA005219D200A21810008530FF3001689B
:104720004944016011007D31FF3108684844086048
:104730008132FF321268002A09D0AA005219D20031
:10474000A2187932FF321268934200D38DE0AB0099
:104750005B19DB00E3186933FF331978200003F09D
:10476000BCFCFBE67319DB00E3181A006F32FF3262
:1047700012887D33FF3319684B4602F047FCC6E7C9
:104780000F8FFFFF0080FFFF0204000006040000FF
:104790008F0F0000FF83FFFF8FBFFFFF8080FFFFB1
:1047A000AB005B19DB00E3186C33FF331B78022B83
:1047B00036D0AB005B19DB00E3186933FF3319789F
:1047C00089002268944661440A8874481040744AFB
:1047D000024392B20A8020681B789A0082181288DD
:1047E000520424D55022825ADB00D3181B186D4A7C
:1047F000944663441B889B059A0D9146002B00D17B
:1048000085E7AB005B19DB00E3181A007132FF3259
:1048100012887D33FF3319684B4602F0F7FB76E7C9
:104820003A0041462000FFF71BFB81466FE750220C
:10483000825ADB00D3181B185B4A944663441B88DA
:104840009B059A0D9146002B00D160E7AB005B19E8
:10485000DB00E3181A007332FF3212887D33FF3316
:1048600019684B4602F0D2FB51E74146206802F03E
:104870005DF873E6012B00D0ABE623685022995A0D
:1048800059186B1C9A00D218D200135DDB005B181C
:10489000444A9446634400221A809AE62268691CBE
:1048A0008B005B18DB00E3185B78002B16D15033CC
:1048B000D15A51186A1C93009B18DB001B5DDB006A
:1048C0005B18394A944663441A8838490A401A806A
:1048D0001A8837490A4392B21A807AE6012B00D02F
:1048E00077E64F33D35AD218691C8B005B18DB0074
:1048F0001B5DDB009A182C4B9C46624400231380FE
:1049000067E6FB053ED420685023C35A6E1CB200F4
:104910009219D200165DF2009B181B18214A94468A
:1049200063441A889205920DAB005B19DB00E31813
:104930001F6C974211D9AB005B19DB00E318BF1A5B
:104940001F64AB005B19DB00E3181B6C002B0BD161
:104950003100200003F0D0FB43E6AB005B19DB0025
:10496000E31800271F64ECE7AB005E19F600A619F8
:10497000F16B8F18F763736C9A187264414601F0FB
:10498000D5FF2EE63A0041462000FFF77FFB28E6E0
:104990000020C0BCB946B046F8BDC0468F8FFFFFAF
:1049A000C080FFFF0204000006040000FF83FFFF39
:1049B0000080FFFF70B50400AA239B00C35C012B9D
:1049C0000CD0AA25AD00012343552333C154006800
:1049D00001F082FF00236355002070BD0220FCE738
:1049E00070B50400006801F089FF030400D57DE084
:1049F000206801F083FF430500D57BE0206801F0CB
:104A00007DFF430405D5216844228B5A5748034053
:104A10008B52206801F072FF830405D5216844227F
:104A20008B5A534803408B52206801F067FFC30440
:104A300018D521684023CA5A04208243CA522168EB
:104A4000CA5A04308243CA52B8239B00E35C012B4C
:104A50005ED0200003F088FB216844228B5A454831
:104A600003408B52206801F049FF030559D42068A8
:104A700001F044FF030628D5216844228B5A802088
:104A800083438B52B8239B00E35C002B60D12168E9
:104A9000043A8B5A042003439BB28B5221688B5AF1
:104AA000082003439BB28B52B8239B003F3AE25449
:104AB00054232268D25A9208183B1340B92292001C
:104AC000A3500121200000F0DBF9206801F016FF5F
:104AD000830541D4206801F011FFC30505D5216885
:104AE00044228B5A244803408B5270BD2000FFF7AC
:104AF000BBFC7DE7216844228B5A204803408B523F
:104B0000200003F00DFB00212000FFF753FF75E7A5
:104B1000B8239B000022E2540021200000F0B0F9ED
:104B200097E7216840228B5A082003439BB28B529F
:104B300020684421435A124D2B40435221688B5A1E
:104B4000042003439BB28B52200003F0FBFA8EE754
:104B5000200003F0F7FAB8E7216844228B5A09488D
:104B600003408B52200003F0D4FAB3E7FFBFFFFFEE
:104B7000FFDFFFFFFFEFFFFFFFFEFFFFFFFBFFFF7A
:104B8000FFF7FFFFFFFDFFFF70B504000D0049B206
:104B9000002929DB07262E40B0008119C9006931A0
:104BA000FF3161188019C00020186A30FF300026DC
:104BB0000670072005400D700A61CB704A78002A04
:104BC00000D0CD81022B19D0AA239B00E35C012BDE
:104BD00017D0AA25AD0001236355206801F0CCFB56
:104BE00000236355002070BD07202840461CB000FC
:104BF0008119C900611801264E70DAE700230B7194
:104C0000E2E70220EFE770B504000A004BB2002B88
:104C100021DB0720084083001918C9006931FF31E2
:104C200061181B18DB00E3186A33FF33002018708B
:104C300007231A400A70AA239B00E35C012B14D0BF
:104C4000AA25AD0001236355206801F019FD00235A
:104C50006355002070BD07230B40581C83001918B2
:104C6000C900611801204870E2E70220F2E7F8B5B8
:104C700007260E40B400A119C9006931FF3141185F
:104C8000A519ED0045192F007D37FF373A602A003E
:104C90008132FF3213600432002313606A35FF351E
:104CA0002B70A419E40004196934FF342670002E17
:104CB00004D1006801F03AFE0020F8BD006801F060
:104CC00035FEF9E707230B409900C918C9004018C1
:104CD0008530FF3000687047F0B5C64600B507253F
:104CE0000D406F1CBE00F119C90088468044AC001D
:104CF0006419E4000419E26323644C229446A4443A
:104D00004B3A61460A70A3640023636443465A70B9
:104D1000F619F6003554002D07D10068414601F020
:104D200005FE002080BCB846F0BD0068414601F099
:104D3000FDFDF6E770B504000B0007220A4041684C
:104D40008A422AD859B200291FDB9800C118C9002D
:104D50006931FF316118C018C00020186A30FF3077
:104D60000023037001238B700A70AA239B00E35C6D
:104D7000012B14D0AA25AD0001236355206801F052
:104D800037FD00236355002070BD501C83001918A7
:104D9000C900611801204870E4E70120F4E702200F
:104DA000F2E770B504000B000F220A4041688A4206
:104DB00030D85AB2002A23DB07201840820011188D
:104DC000C9006931FF3161181218D200A2186A3285
:104DD000FF320020107000228A70073213400B70DF
:104DE000AA239B00E35C012B16D0AA25AD0001236A
:104DF0006355206801F022FD00236355002070BD3B
:104E000007221A40501C82001118C90061180120A5
:104E10004870E0E70120F2E70220F0E710B50C0649
:104E20000CD50724214001318C006118C9004018BD
:104E3000002A0AD10273C380002010BD8C006118C3
:104E4000C9006931FF314018F2E701220273038182
:104E50001B0C4381F0E70168BA239B000122C2507A
:104E6000083B0022C25454328B5A012003439BB2A8
:104E70008B528B5A022003439BB28B520020704707
:104E80007047000070B582B0041E00D17FE2036855
:104E9000DB072BD5B34B5A680C231340042B1DD0D2
:104EA000B04B5A680C231340082B0ED06368012BBB
:104EB00041D0002B56D1AB4B1A68AB490A401A605F
:104EC0001A68AA490A401A603BE0A64B5B68C022F8
:104ED00052021340802252029342E7D1A14B1B6839
:104EE0009B0303D56368002B00D153E223689B0723
:104EF00077D59C4B5B680C221A4262D0994B5A685A
:104F00000C231340082B53D0E368002B00D18AE018
:104F1000944A136801210B431360FEF769FE0500F4
:104F2000904B1B689B0775D4FEF762FE401B02285E
:104F3000F6D903202CE28B4A116880235B020B43D5
:104F400013606368002B25D0FEF752FE0500854BE9
:104F50001B689B03CAD4FEF74BFE401B6428F6D99E
:104F6000032015E2052B09D07E4B1A687E490A40C2
:104F70001A601A687D490A401A60E2E7794B19689D
:104F80008022D2020A431A601968802252020A4320
:104F90001A60D6E7FEF72CFE0500724B1B689B03D8
:104FA000A4D5FEF725FE401B6428F6D90320EFE1C7
:104FB0006C4B5B68C0225202134080221202934263
:104FC000A2D1684B1B689B0703D5E368012B00D077
:104FD000E2E164490B68F82293432269D20013434B
:104FE0000B6023681B0744D5E369002B2ED05D4A74
:104FF000536A01210B435362FEF7FAFD0500594B3A
:105000005B6A9B0735D4FEF7F3FD401B0228F6D9F7
:105010000320BDE153490B68F82293432269D20073
:1050200013430B60DDE74F4A136801218B43136084
:10503000FEF7DEFD05004B4B1B689B07D1D5FEF745
:10504000D7FD401B0228F6D90320A1E1454A536A47
:1050500001218B435362FEF7CBFD0500414B5B6A98
:105060009B0706D5FEF7C4FD401B0228F6D9032096
:105070008EE123685B0700D480E03A4BDB69DB00FC
:105080001DD4384AD169802040050143D161D369DC
:1050900003400193019B0125354B1B68DB0510D5AF
:1050A000A368012B21D0002B36D12E4B1A6A012187
:1050B0008A431A621A6A03318A431A621AE0002587
:1050C000EAE72B4A116880235B000B431360FEF76D
:1050D0008FFD0600264B1B68DB05E1D4FEF788FD3B
:1050E000801B6428F6D9032052E11E4A136A01216D
:1050F0000B431362A368002B24D0FEF779FD060052
:10510000184B1B6A9B0737D4FEF772FD801B194BA7
:105110009842F5D903203BE1052B09D0114B1A6ABF
:1051200001218A431A621A6A03318A431A62E1E74B
:105130000C4B1A6A04210A431A621A6A03390A4399
:105140001A62D7E7FEF754FD0600064B1B6A9B0761
:1051500012D5FEF74DFD801B064B9842F5D9032072
:1051600016E1C04600100240FFFFFEFFFFFFFBFFFD
:105170000070004088130000012D39D02368DB0641
:1051800010D56369012B39D0053357D1894A536B48
:1051900004218B435363536BF4318B43A169C900E2
:1051A0000B43536323689B066ED5824B5A680C23CE
:1051B00013400C2B60D07F4B5A680C231340082BF4
:1051C00053D0236A002B7ED07A4A516B80235B0236
:1051D0000B435363FEF70CFD0500764B5B6BDB0363
:1051E00052D4FEF705FD401B0228F6D90320CFE07C
:1051F000704AD36970490B40D361BFE76D4B5A6B5E
:1052000004210A435A635A6B03390A435A63FEF76F
:10521000EFFC0500674B5B6B9B0706D4FEF7E8FCD1
:10522000401B0228F6D90320B2E062494B6BF822FA
:105230009343A269D20013434B63B3E75D4B5A6BB0
:1052400004210A435A635A6B03398A435A63FEF7AF
:10525000CFFC0500574B5B6B9B07A3D5FEF7C8FC43
:10526000401B0228F6D9032092E0524B5B68C02213
:10527000520213409342A4D14E4B5B6BDB0303D528
:10528000236A012B00D089E0636A002B00D187E0FC
:10529000484A51680C220A40082A60D0022B25D0C7
:1052A000444A136845490B401360FEF7A1FC040013
:1052B000404B1B689B0150D5FEF79AFC001B02284F
:1052C000F6D9032064E03B4A536B3D490B405363DE
:1052D000FEF78EFC0500374B5B6BDB03D4D5FEF786
:1052E00087FC401B0228F6D9032051E0314A13689D
:1052F00032490B401360FEF77BFC05002D4B1B6809
:105300009B0106D5FEF774FC401B0228F6D903204A
:105310003EE0284BDA6A0F218A43216B0A43DA62A6
:105320005A6828490A40E16AA06A01430A435A6060
:105330001968802252040A431A60FEF759FC0400DF
:105340001C4B1B689B0106D4FEF752FC001B022875
:10535000F6D903201CE000201AE0002018E0012B01
:1053600020D0144B5A68D96AC0235B021340A06A4C
:10537000834219D10F230B40216B8B4216D1F023AE
:105380009B031A40E36A9A4212D1002000E00120F8
:1053900002B070BD0120FBE70120F9E70120F7E72B
:1053A0000020F5E70120F3E70120F1E70120EFE716
:1053B0000120EDE700100240FFFFFFEFFFFFFFFEBF
:1053C000FFFFFEFFFF7FC2FF10B588B004AA204B8D
:1053D00013CB13C21B6813606A461E4B13CB13C258
:1053E0001B6813601C4B5A680C231340082B08D011
:1053F0000C2B2AD0042B02D0184808B010BD184836
:10540000FBE7910C0F23194004A8445C1249C96AB8
:105410000B406946C95CC0235B021A4080235B02D3
:105420009A4208D0C0235B029A4209D00B48FAF78F
:1054300087FE6043E1E70A48FAF782FE6043DCE753
:105440000848FAF77DFE6043D7E70648D5E7C0462F
:1054500048DB00085CDB00080010024000127A0004
:105460000024F400006CDC0270B504000D0000287C
:1054700000D186E0474B1A68012313408B420AD2C1
:1054800044490B68012293432B430B600B681A407D
:10549000AA4200D077E023689A070ED55B0705D5AE
:1054A0003D4A5168E023DB000B4353603A4A53689E
:1054B000F0218B43A1680B4353602368DB0735D58C
:1054C0006368012B09D0022B24D0032B28D0324A49
:1054D0001268920705D4012052E02F4A1268920305
:1054E00053D52D494A680320824313434B60FEF78E
:1054F0007FFB0600284B5B680C221A4063689B0008
:105500009A4213D0FEF774FB801B244B9842F1D9CA
:10551000032035E0204A12689201E2D401202FE0F6
:105520001D4A526BD203DCD4012029E0194B1A68C2
:1055300001231340AB4209D916490B68012293435A
:105540002B430B600B681A40AA4220D123685B07EB
:1055500006D5114A536812490B40E1680B4353606A
:10556000FFF732FF0C4B5A6812090F2313400D4A04
:10557000D35CD8400C4B18600320FDF78FFF002050
:1055800070BD0120FCE70120FAE70120F8E70120C7
:10559000F6E7C046002002400010024088130000D9
:1055A000FFF8FFFF30DB000800000020014B186807
:1055B0007047C0460000002010B5FFF7F7FF044B0E
:1055C0005A68120A07231340024AD35CD84010BD20
:1055D0000010024040DB000810B5072303600A4BAF
:1055E0005C680322224042605C68F02222408260B4
:1055F0005B68E022D2001340C360044B1A680123A9
:1056000013400B6010BDC046001002400020024055
:1056100070B582B004000368DB0337D54C4BDB69FF
:10562000DB0067D44A4AD169802040050143D1613B
:10563000D36903400193019B0125464B1B68DB05A1
:105640005AD5434B1A6AC0239B00110019401A42D5
:1056500013D0626813408B420FD03D4B186A3E4A0C
:1056600002401E6A8021490231431962196A3B4E89
:10567000314019621A62C30752D4354A136A364957
:105680000B4061680B431362012D58D02368DB0780
:1056900006D52F4A136B03218B43A1680B43136379
:1056A00023689B0706D52A4A136B2D490B40E168F6
:1056B0000B43136323689B0606D5254A136B102101
:1056C0008B4321690B43136323689B0306D5204A50
:1056D000136B80218B43A1690B43136323685B0524
:1056E00032D51B4A136B40218B4361690B43136313
:1056F00000202AE00025A0E7164A116880235B00FD
:105700000B431360FEF774FA0600124B1B68DB05AF
:1057100097D4FEF76DFA801B6428F6D9032014E0B5
:10572000FEF766FA06000A4B1B6A9B07A5D4FEF734
:105730005FFA801B0B4B9842F5D9032005E0D36933
:1057400009490B40D361A1E7002002B070BDC046FB
:105750000010024000700040FFFCFFFFFFFFFEFF53
:10576000FFFFFCFF88130000FFFFFFEF30B5036A67
:10577000012293430362036A426884697325AC4340
:105780000D682C430225AB438D682B43144DA84272
:1057900008D0144DA84205D0134DA84202D0134D95
:1057A000A84205D10825AB43CD682B430425AB4364
:1057B0000B4DA84208D00B4DA84205D00A4DA84277
:1057C00002D00A4DA84205D1094D2A404D692A430D
:1057D0008D692A43426084614A684263036230BD36
:1057E000002C0140004001400044014000480140BD
:1057F000FFFCFFFF70B5036A194A13400362036A96
:105800004268C4697325AC430E682643154C234097
:105810008C6824022343144CA04219D0124CA0429D
:1058200008D0124CA04205D0114CA04202D0114C1D
:10583000A04207D1104C14404A69120122438C69DE
:1058400025012A434260C6614A68C263036270BD93
:105850000A4C1C40CB681B022343094C2340DDE764
:10586000FFFEFFFFFFFDFFFF002C01400040014055
:105870000044014000480140FFCFFFFFFFF7FFFF5A
:10588000FFFBFFFF30B5036A134A13400362026A4D
:105890004368C469114D2C400D682D022C43104DF6
:1058A00015408A6812032A430E4DA84208D00E4DB7
:1058B000A84205D00D4DA84202D00D4DA84204D1FA
:1058C0000C4D2B404D69AD012B434360C4614B68C7
:1058D0000364026230BDC046FFEFFFFFFF8CFFFF95
:1058E000FFDFFFFF002C0140004001400044014069
:1058F00000480140FFBFFFFF30B5036A046A01257D
:10590000AC4304628469EF35AC43120122430A249C
:10591000A3430B438261036230BD000030B5036ACC
:105920001024A34303628469036A054D2C401203CB
:105930002243A024A343090119438261016230BDBF
:10594000FF0FFFFF8368702293430B4307210B4334
:10595000836070473D23C35C012B26D13C33022278
:10596000C2540268D36801210B43D3600368114A13
:1059700093420FD08022D20593420BD00E4A93421D
:1059800008D00E4A934205D01A6801210A431A60D2
:1059900000200BE0996807220A40062A07D01A68FF
:1059A00001210A431A60002000E001207047002016
:1059B000FCE7C046002C01400004004000400140CC
:1059C0007047704770477047704710B50400036810
:1059D0001A6992070FD5DA6892070CD50322524252
:1059E0001A610123037703689B699B0763D0FFF764
:1059F000E9FF0023237723681A69520712D5DA6872
:105A000052070FD5052252421A61022323772368D9
:105A10009A69C0239B001A4253D02000FFF7D2FF9F
:105A20000023237723681A69120710D5DA68120752
:105A30000DD5092252421A61042323772368DB69BA
:105A40009B0745D02000FFF7BDFF00232377236885
:105A50001A69D20612D5DA68D2060FD5112252423F
:105A60001A61082323772368DA69C0239B001A424E
:105A700035D02000FFF7A6FF0023237723681A699B
:105A8000D20702D5DA68D20730D423681A69120621
:105A900002D5DA68120630D423681A69520602D594
:105AA000DA68520630D423681A69920602D5DA6899
:105AB000920630D410BDFFF784FF2000FFF783FF6C
:105AC00097E72000FFF77DFF2000FFF77CFFA7E7A7
:105AD0002000FFF776FF2000FFF775FFB5E72000F5
