:020000040800F2
:10000000004000200D150008590F00085F0F000880
:1000100000000000000000000000000000000000E0
:10002000000000000000000000000000C19B00086C
:100030000000000000000000E19C0008299D00086D
:100040005D1500085D1500085D1500085D150008C8
:100050005D1500085D1500085D1500085D150008B8
:100060005D1500085D1500085D1500085D150008A8
:100070005D150008650F00085D1500087D0F00087C
:100080005D1500085D1500085D1500085D15000888
:100090005D1500085D150008950F00085D15000846
:1000A0005D1500085D1500085D1500085D15000868
:1000B0005D1500085D1500085D150008AD0F00080E
:1000C00010B5064C2378002B07D1054B002B02D02E
:1000D000044800E000BF0123237010BDE8010020A8
:1000E0000000000050B50008044B10B5002B03D0F1
:1000F0000349044800E000BF10BDC04600000000F6
:10010000EC01002050B50008002243088B4274D354
:1001100003098B425FD3030A8B4244D3030B8B4208
:1001200028D3030C8B420DD3FF22090212BA030C11
:100130008B4202D31212090265D0030B8B4219D3F2
:1001400000E0090AC30B8B4201D3CB03C01A524112
:10015000830B8B4201D38B03C01A5241430B8B425A
:1001600001D34B03C01A5241030B8B4201D30B0343
:10017000C01A5241C30A8B4201D3CB02C01A52416A
:10018000830A8B4201D38B02C01A5241430A8B422D
:1001900001D34B02C01A5241030A8B4201D30B0216
:1001A000C01A5241CDD2C3098B4201D3CB01C01A30
:1001B000524183098B4201D38B01C01A524143093A
:1001C0008B4201D34B01C01A524103098B4201D328
:1001D0000B01C01A5241C3088B4201D3CB00C01A95
:1001E000524183088B4201D38B00C01A524143080D
:1001F0008B4201D34B00C01A5241411A00D2014632
:10020000524110467047FFE701B5002000F0F0F8BA
:1002100002BDC0460029F7D076E7704703460B437E
:100220007FD4002243088B4274D303098B425FD3EF
:10023000030A8B4244D3030B8B4228D3030C8B421B
:100240000DD3FF22090212BA030C8B4202D3121201
:10025000090265D0030B8B4219D300E0090AC30BD6
:100260008B4201D3CB03C01A5241830B8B4201D383
:100270008B03C01A5241430B8B4201D34B03C01A6C
:100280005241030B8B4201D30B03C01A5241C30AE4
:100290008B4201D3CB02C01A5241830A8B4201D355
:1002A0008B02C01A5241430A8B4201D34B02C01A3F
:1002B0005241030A8B4201D30B02C01A5241CDD2E4
:1002C000C3098B4201D3CB01C01A524183098B422F
:1002D00001D38B01C01A524143098B4201D34B0118
:1002E000C01A524103098B4201D30B01C01A52417B
:1002F000C3088B4201D3CB00C01A524183088B4202
:1003000001D38B00C01A524143088B4201D34B00EA
:10031000C01A5241411A00D201465241104670475C
:100320005DE0CA0F00D04942031000D34042534061
:1003300000229C4603098B422DD3030A8B4212D321
:10034000FC22890112BA030A8B420CD38901921153
:100350008B4208D3890192118B4204D389013AD090
:10036000921100E08909C3098B4201D3CB01C01A65
:10037000524183098B4201D38B01C01A5241430978
:100380008B4201D34B01C01A524103098B4201D366
:100390000B01C01A5241C3088B4201D3CB00C01AD3
:1003A000524183088B4201D38B00C01A5241D9D2EB
:1003B00043088B4201D34B00C01A5241411A00D26C
:1003C0000146634652415B10104601D34042002B68
:1003D00000D54942704763465B1000D3404201B5E7
:1003E000002000F005F802BD0029F8D016E770479C
:1003F0007047C046F0B5C64643025B0A4E02450050
:100400004F00DA00C40F9C46700A904600B52D0ECE
:100410003F0EC90FB6098C424BD0EA1B002A36DDCD
:10042000002F61D0FF2D00D1ADE08023DB041E43FF
:100430001B2A00DCD3E001204346181A430100D4F4
:100440008CE080018709380000F0D8FA0538874031
:10045000854200DCB6E02D1AB3483840430704D08B
:100460000F230340042B00D00430430100D478E074
:100470006A1CFE2D65D08001430A9C46D2B26346B9
:10048000D0051843E407204380BCB846F0BD002ADD
:1004900035D07A1B002D00D0AFE04346002B00D1B1
:1004A000A7E0531E012A00D12FE1FF2A69D01A00CC
:1004B000AAE0E91B002970DD002F37D0FF2D62D0A4
:1004C0008023DB041E431B2900DCB0E001204044F4
:1004D000430143D50135FF2D33D00123934A034017
:1004E000400810401843B9E7002E00D183E0511EA8
:1004F000012A00D1D8E0FF2A45D00A0098E7FE275C
:100500006A1C174200D086E0002D00D0B7E04346B9
:10051000002B00D1F3E00022002EB0D0981B430145
:1005200000D4FAE043460C00F01A97E7002E00D101
:10053000C8E04A1E012900D1AEE0FF2923D01100F6
:10054000C1E70023FF229C4699E7FE216A1C114265
:1005500077D0FF2AF5D0150046447008430700D035
:100560007EE7C308FF2D0ED05B025B0A9C46EAB211
:1005700085E7002E07D08022D203134203D0104219
:1005800001D10C000300002BDBD08020C0031843F6
:100590004002430A9C46FF2271E70029D5D07A1B0E
:1005A000002D60D14346002B24D0531E012A73D066
:1005B000FF2AE7D01A001B2A00DC85E001203D005D
:1005C000801985E720233A00451B38000135EA40B1
:1005D0005D1BA840431E9841002510433EE72023A1
:1005E00030009B1A31009840D140431E9841084387
:1005F00022E70C0003001500B4E7FF2FC1D08023D1
:100600004046DB04184380461B2A51DD01200C00C4
:100610003D00301A12E743469F1B7B012BD4002F6D
:1006200000D010E70023002400229C4627E7202367
:1006300032003000CA40591A8840431E9841104386
:1006400045E7002D4AD14346002B63D00022002EFF
:1006500000D114E730004044430100D47EE7324B20
:10066000013518407AE7FF2F8CD080234146DB0408
:10067000194388469FE743460C00F71AE3E64246D3
:10068000002A00D075E7002E00D07AE78023DB0334
:1006900000249C46FF22F2E630004044012543013D
:1006A00000D45BE7022518E743460125981BC5E601
:1006B000202344464046D4409A1A9040431E984115
:1006C0002043A4E70D004DE7202341464046D1409A
:1006D0009A1A9040431E9841084370E74246002A08
:1006E00000D14FE7002E00D14DE78022D203134204
:1006F00000D148E7104200D045E7030043E7002E51
:1007000090D00C0084460022B9E643460C00F01A53
:10071000013593E684460022B1E6002800D01DE7AB
:10072000002300249C46AAE6FFFFFFFBFFFFFF7D9E
:10073000F0B54F464646D6464502C0B547000C1CAC
:100740006D0A3F0EC60F002F00D170E0FF2F00D1C1
:1007500075E0EB008025ED041D43002399469A4681
:100760007F3F6002430A984663001B0EE40F002B94
:100770004ED0FF2B46D04246D0008022D204024306
:10078000904600227F3B3100FF1A4B466140C9B2C0
:1007900013430F2B00D9B5E06E489B00C3589F460A
:1007A000002398462600454692465346022B00D128
:1007B00089E0032B00D19EE0012B18D03B007F3352
:1007C000002B69DD6A0704D00F222A40042A00D0DA
:1007D00004352A0103D5604B1D403B008033FE2BBE
:1007E00000DD70E0AD016D0AD8B202E00E0000201D
:1007F0000025C0052843F6073043E0BCBA46B146A1
:10080000A846F0BD4346002B3FD10222FF3F03E044
:100810004346002B2DD1012231004B466140C9B225
:1008200013430F2B34D84D489B00C3589F46002DCF
:1008300013D104239946033B00279A4691E7002DE4
:1008400005D108239946063BFF279A4689E70C23E2
:100850009946093BFF279A4683E7280000F0CEF827
:100860007627431F9D4000237F4299469A463F1AB0
:1008700077E7404600F0C2F84246431F9A4076238D
:100880005B4290461B1A00227DE7FF2303227AE792
:100890000E00FF200025ACE70120C01A1B28A6DCB3
:1008A0009E372A00BD40C2406B1E9D4115436B0719
:1008B00004D00F232B40042B00D004356B0144D50A
:1008C0000120002595E7FF20002592E780250026DE
:1008D000FF20ED038DE7002398468020C0030542EA
:1008E00009D04346034206D1454605436D02260022
:1008F000FF206D0A7DE78020C00305436D02FF20C5
:100900006D0A76E742466B015001834219D21B22E1
:100910000025013F01261C006D005B00002C01DB5F
:10092000984201D81B1A3543013A002AF3D15A1EC6
:1009300093411D433B007F330E00002B00DD41E758
:10094000AAE71A2201251B1AE4E7AD0100206D0A6F
:100950004FE7C04678B60008FFFFFFF7B8B60008BB
:10096000F8B5002813D0C317C6185E40C40F300076
:1009700000F044F89E2305001B1A962B0FDC082874
:1009800001DD083DAE407602760AD8B202E00024CE
:1009900000200026C0053043E4072043F8BD992B12
:1009A0000CDD05223100121AD1400A00010030008E
:1009B0001B318840411E884102431600052D12DC80
:1009C00031000D4F3940720709D00F203040042804
:1009D00005D004314A0102D59F2339405B1B8901B0
:1009E0004E0AD8B2D6E76A1F96403100024F39400E
:1009F0007207F4D0E9E7C046FFFFFFFB1C2101238B
:100A00001B04984201D3000C10391B0A984201D3F1
:100A1000000A08391B09984201D30009043902A2CF
:100A2000105C40187047C046040302020101010136
:100A3000000000000000000080B584B000AFF86046
:100A4000B9607A60FB68064A1A60BB68054A1A609A
:100A50007B6880221A60C046BD4604B080BDC04697
:100A600024020020D8020020B0B59CB000AF542171
:100A70007B18224A31CA31C331CA31C312681A60A5
:100A80007B180021180008F080FA02001C4B1A6045
:100A900038217B181B4A31CA31C331CA31C31268AD
:100AA0001A607B180021180008F06FFA0200164B3C
:100AB0001A601C217B18154A31CA31C331CA31C3AF
:100AC00012681A607B180021180008F05EFA020014
:100AD0000F4B1A603B000F4A13CA13C313CA13C348
:100AE00012681A603B000021180008F04EFA02005C
:100AF000094B1A60C046BD461CB0B0BD98B5000891
:100B000014020020B4B5000818020020D0B5000877
:100B10001C020020ECB500082002002080B582B045
:100B200000AF786009F0E2FA064B2021180000F0CF
:100B30008AFFFA235B00180008F0B4FC012008F0DB
:100B400071FAF1E70004004880B582B000AF786028
:100B5000012008F067FAFBE780B582B000AF78604B
:100B6000012008F05FFAFBE780B582B000AF786043
:100B7000012008F057FAFBE790B58BB000AF1424C2
:100B80003B19180014231A0000210AF00BFC554BE6
:100B90005A69544B802109030A435A61514B5A69DF
:100BA00080231B0313403B613B694E4B5A694D4BFD
:100BB0008021C9030A435A614A4B5A698023DB03E7
:100BC0001340FB60FB68474B5A69464B8021890202
:100BD0000A435A61434B5A6980239B021340BB600E
:100BE000BB68404B5A693F4B8021C9020A435A6196
:100BF0003C4B5A698023DB0213407B607B683A4997
:100C00009023DB050022180000F000FF374B002284
:100C10002521180000F0FAFEFE235B013448002273
:100C2000190000F0F3FE3B19802292011A603B1973
:100C300000225A603B1900229A603B192C4A190085
:100C4000100000F06BFD3B19274A1A603B19012286
:100C50005A603B1900229A603B190022DA603A1967
:100C60009023DB051100180000F058FD3B192522E8
:100C70001A603B1901225A603B1900229A603B1905
:100C80000022DA603B19194A1900100000F046FDF5
:100C900021007B18E022D2011A600C003B190022CF
:100CA0005A603B1900229A603B19104A1900100043
:100CB00000F034FD21007B18FE2252011A607B18DF
:100CC00001225A607B1800229A607B180022DA60A9
:100CD0007B18074A1900100000F020FDC046BD46F1
:100CE0000BB090BD0010024080810000000400485D
:100CF0000008004880B500AF00F032FC00F00FF8AB
:100D0000FFF73AFF00F020FA00F062F900F0B8F9BE
:100D100000F09CFAFFF7A8FE08F02FF9FEE790B567
:100D200099B000AF2C243B19180034231A0000217D
:100D30000AF038FB1C23FB18180010231A000021AE
:100D40000AF030FB3B0018001C231A0000210AF0B7
:100D500029FB3B1920221A603B1901221A623B1918
:100D600000225A623B19180002F0FAFC031E01D05F
:100D700000F03CF81C217B1807221A607B18032224
:100D80005A607B1800229A607B180022DA607B1878
:100D90000121180003F06AF8031E01D000F026F8C4
:100DA0003B00802292021A603B0000229A613B00C5
:100DB000180003F001FA031E01D000F017F8C04636
:100DC000BD4619B090BD000080B582B000AF78601C
:100DD0007B681B68044A934201D100F0D5FBC046F2
:100DE000BD4602B080BDC0460048014080B500AF9E
:100DF00072B6C046FEE7000080B582B000AF124B6D
:100E00009A69114B01210A439A610F4B9B69012298
:100E100013407B607B680C4BDA690B4B80214905E2
:100E20000A43DA61084BDA6980235B0513403B60B3
:100E30003B6802235B4200220321180000F048FCBB
:100E4000C046BD4602B080BD00100240B0B58CB0B7
:100E500000AF786000237B6200233B62384B9A69C5
:100E6000374B8021C9020A439A61354B9A69802326
:100E7000DB021340BB60BB680C23FA1810243B193B
:100E80001100180003F06EF93B19DB687B627B6A86
:100E9000002B04D103F050F90300FB6204E003F0DF
:100EA0004BF903005B00FB62FB6A26491800FFF761
:100EB0002BF90300013B3B62234B244A1A60224B6F
:100EC000234ADA60204B3A6A5A601F4B00221A61AB
:100ED0001D4B00229A601C4B00229A612B257C1925
:100EE000194B180003F066FA030023707B191B7876
:100EF000002B1ED17C19144B180003F0ABFA030031
:100F000023707B191B78002B13D1162000F0F5FB02
:100F10007B68032B09D87B6800221900162000F09B
:100F2000D7FB0C4B7A681A6003E02B23FB180122D5
:100F30001A702B23FB181B781800BD460CB0B0BDEF
:100F40000010024040420F00D80400200048014039
:100F5000E70300000800002080B500AFFEE780B581
:100F600000AFFEE780B500AF034B180003F01CFC98
:100F7000C046BD4680BDC0462005002080B500AFFC
:100F8000034B180003F010FCC046BD4680BDC046B0
:100F90006805002080B500AF034B180003F004FC87
:100FA000C046BD4680BDC046D804002080B500AF15
:100FB000034B180000F098FEC046BD4680BDC046F9
:100FC0007420002080B500AFC046BD4680BD000043
:100FD00080B586B000AF0823FB18180010231A0054
:100FE00000210AF0DFF93B00180008231A00002155
:100FF0000AF0D8F91F4B204A1A601E4B2F225A6064
:101000001C4B00229A601B4B1C4ADA60194B0022D1
:101010001A61184B00225A61164B00229A61154B37
:10102000180003F0C7F9031E01D0FFF7DFFE082107
:101030007B18802252011A607A180E4B110018009A
:1010400003F0E6FD031E01D0FFF7D0FE3B000022B7
:101050001A603B0000225A603A00064B110018004B
:1010600004F0D8F9031E01D0FFF7C0FEC046BD460C
:1010700006B080BD20050020002C01400F27000095
:1010800090B58DB000AF0C243B19180024231A0032
:1010900000210AF087F93B1D180008231A000021DF
:1010A0000AF080F9264B8022D2051A60244B0022D8
:1010B0005A60234B00229A60214B224ADA60204B6F
:1010C00000221A611E4B00229A6121007B18032224
:1010D0001A607B1800225A607B1801229A607B18E4
:1010E0000022DA607B1800221A617B1800225A6104
:1010F0007B1801229A617B180022DA617B1800229A
:101100001A627A180E4B1100180003F0A5FA031E9C
:1011100001D0FFF76BFE3B1D00221A603B1D002231
:101120005A603A1D064B1100180004F073F9031EB3
:1011300001D0FFF75BFEC046BD460DB090BDC04676
:1011400068050020204E000080B58EB000AF282337
:10115000FB18180010231A0000210AF023F920239D
:10116000FB18180008231A0000210AF01BF93B1D88
:1011700018001C231A0000210AF014F9304B314AE0
:101180001A602F4B2F225A602D4B00229A602C4B55
:101190002D4ADA602A4B00221A61294B00229A61FB
:1011A000274B180003F006F9031E01D0FFF71EFEBF
:1011B00028217B18802252011A607A18204B1100D6
:1011C000180003F025FD031E01D0FFF70FFE1C4B96
:1011D000180003F091F9031E01D0FFF707FE20214C
:1011E0007B1800221A607B1800225A607A18144B70
:1011F0001100180004F00EF9031E01D0FFF7F6FDF0
:101200003B1D00221A603B1DFA22D2005A603B1D92
:1012100000229A603B1D00221A61391D084B0C22E6
:10122000180003F0D7FB031E01D0FFF7DFFD044BCE
:10123000180000F0FFF8C046BD460EB080BDC046A5
:10124000B005002000040040FFFF000080B588B01A
:1012500000AF3B1D18001C231A0000210AF0A2F861
:101260001F4B204A1A601E4B2F225A601C4B002233
:101270009A601B4B1C4ADA60194B00221A61184B0A
:1012800000229A61164B180003F094F8031E01D057
:10129000FFF7ACFD124B180003F086F9031E01D0D6
:1012A000FFF7A4FD3B1D60221A603B1D00225A601F
:1012B0003B1D00229A603B1D00221A61391D084B1C
:1012C0000022180003F0DEFB031E01D0FFF78EFDA5
:1012D000034B180000F0AEF8C046BD4608B080BD14
:1012E000F805002000200040FFFF000080B586B018
:1012F00000AF78607B681B68214A934216D1214B6E
:101300009A69204B802109010A439A611D4B9A6911
:1013100080231B0113407B617B69002203210D2088
:1013200000F0D6F90D2000F0E8F924E07B681B6896
:10133000154A93420CD1134BDA69124B02210A432E
:10134000DA61104BDB69022213403B613B6912E01A
:101350007B681B680D4A93420DD10A4BDA69094B31
:10136000802149000A43DA61064BDA6980235B0079
:101370001340FB60FB68C046BD4606B080BDC0465A
:10138000002C0140001002400004004000200040FA
:1013900090B58BB000AF786014243B19180014236B
:1013A0001A00002109F0FEFF7B681A688023DB0524
:1013B0009A4238D11E4BDA691D4B01210A43DA618A
:1013C0001B4BDB69012213403B613B69184B5A6997
:1013D000174B802189020A435A61154B5A698023B1
:1013E0009B021340FB60FB6821007B1803221A60FC
:1013F0007B1802225A607B1800229A607B18002218
:10140000DA607B1802221A617A189023DB0511003A
:10141000180000F083F9002203210F2000F058F992
:101420000F2000F06AF9C046BD460BB090BDC04623
:101430000010024090B58BB000AF786014243B19C7
:10144000180014231A00002109F0ACFF7B681B6808
:101450002A4A934224D12A4B5A69294B8021C90236
:101460000A435A61264B5A698023DB0213403B61D1
:101470003B6921007B1802221A607B1802225A6005
:101480007B1800229A607B180322DA607B18012205
:101490001A617B181B4A1900100000F03FF929E07F
:1014A0007B681B68184A934224D1154B5A69144B28
:1014B000802189020A435A61114B5A6980239B0299
:1014C0001340FB60FB6814217B1810221A607B1804
:1014D00002225A607B1800229A607B180322DA608D
:1014E0007B1804221A617A189023DB05110018007A
:1014F00000F014F9C046BD460BB090BD000400409A
:101500000010024000040048002000400D488546BD
:101510000D480E490E4A002302E0D458C45004334B
:10152000C4188C42F9D30B4A0B4C002301E0136022
:101530000432A242FBD3FFF745FD09F00DFFFFF790
:10154000D9FBFEE70040002000000020E801002059
:1015500068BA0008E801002048260020FEE70000E5
:1015600080B500AF074B1A68064B10210A431A607A
:101570000320FFF76BFCFFF73FFC00231800BD467C
:1015800080BDC0460020024080B500AF054B1B78EF
:101590001A00054B1B68D218034B1A60C046BD46A3
:1015A00080BDC0460C0000204006002080B500AF82
:1015B000024B1B681800BD4680BDC0464006002097
:1015C00080B582B000AF0200FB1D1A70FB1D1B78B6
:1015D0007F2B09D8FB1D1B781A001F231A40044BD0
:1015E000012191400A001A60C046BD4602B080BD8C
:1015F00000E100E090B583B000AF02003960FB1D50
:101600001A70FB1D1B787F2B28D82F4AFB1D1B78D7
:101610005BB29B08C0339B009B58FA1D12781100E7
:1016200003220A40D200FF2191400A00D2431A400F
:1016300011003B689B01FF221A40FB1D1B7818001C
:1016400003230340DB009A401F48FB1D1B785BB25D
:101650009B080A43C0339B001A5031E01B4AFB1D14
:101660001B7819000F230B40083B9B0806339B0097
:10167000D31804331B68FA1D1278110003220A40A4
:10168000D200FF2191400A00D2431A4011003B686A
:101690009B01FF221A40FB1D1B7818000323034007
:1016A000DB009A400948FB1D1B781C000F232340D8
:1016B000083B9B080A4306339B00C31804331A6097
:1016C000C046BD4603B090BD00E100E000ED00E083
:1016D00080B584B000AFB9607A600F217B18021C1E
:1016E0001A70BA687B181B785BB211001800FFF7FC
:1016F00081FFC046BD4604B080BD80B582B000AF5A
:101700000200FB1D1A70FB1D1B785BB21800FFF76F
:1017100057FFC046BD4602B080BD000080B586B010
:1017200000AF7860396000237B6155E13B681B683E
:1017300001217A6991400A001340FB60FB68002B8D
:1017400000D146E13B685B6803221340012B05D0C2
:101750003B685B6803221340022B30D17B689B6897
:101760003B617B695B0003229A401300DA433B69CB
:1017700013403B613B68DA687B695B009A40130069
:101780003A6913433B617B683A699A607B685B689E
:101790003B6101227B699A401300DA433B691340A5
:1017A0003B613B685B681B0901221A407B699A40D8
:1017B00013003A6913433B617B683A695A603B689E
:1017C0005B6803221340032B17D07B68DB683B6107
:1017D0007B695B0003229A401300DA433B691340A4
:1017E0003B613B689A687B695B009A4013003A69E9
:1017F00013433B617B683A69DA603B685B680322AC
:101800001340022B23D17B69DA087B6808329200EF
:10181000D3583B617B69072213409B000F229A40FB
:101820001300DA433B6913403B613B681A697B69EB
:1018300007210B409B009A4013003A6913433B6118
:101840007B69DA087B68083292003969D1507B687D
:101850001B683B617B695B0003229A401300DA43FB
:101860003B6913403B613B685B6803221A407B691C
:101870005B009A4013003A6913433B617B683A6905
:101880001A603B685A68C0239B02134000D1A0E055
:10189000574B9A69564B01210A439A61544B9B69F5
:1018A00001221340BB60BB68524A7B699B0802332C
:1018B0009B009B583B617B69032213409B000F22D6
:1018C0009A401300DA433B6913403B617A689023E6
:1018D000DB059A4219D07B68474A934213D07B6854
:1018E000464A93420DD07B68454A934207D07B68B5
:1018F000444A934201D1042308E0052306E0032370
:1019000004E0022302E0012300E000237A690321BE
:101910000A40920093403A6913433B6135497B6921
:101920009B0802339B003A695A50374B1B683B6156
:10193000FB68DA433B6913403B613B685A6880238C
:101940005B02134003D03A69FB6813433B612E4BA3
:101950003A691A602C4B5B683B61FB68DA433B6970
:1019600013403B613B685A6880239B02134003D0BD
:101970003A69FB6813433B61234B3A695A60224B37
:101980009B683B61FB68DA433B6913403B613B6802
:101990005A6880235B03134003D03A69FB68134302
:1019A0003B61194B3A699A60174BDB683B61FB68F6
:1019B000DA433B6913403B613B685A6880239B03D1
:1019C000134003D03A69FB6813433B610E4B3A69FD
:1019D000DA607B6901337B613B681A687B69DA40B6
:1019E000131E00D0A2E6C046C046BD4606B080BD6C
:1019F00000100240000001400004004800080048B8
:101A0000000C0048001000480004014080B582B07E
:101A100000AF786008001100BB1C021C1A807B1C00
:101A20000A1C1A707B1C1B78002B04D0BB1C1A8864
:101A30007B689A6103E0BB1C1A887B689A62C04687
:101A4000BD4602B080BD80B584B000AF78600A00AA
:101A5000BB1C1A807B685B69FB60BB1C1B88FA6837
:101A600013401A04FB68DB43B91C09880B401A4376
:101A70007B689A61C046BD4604B080BDF0B58BB0AE
:101A800006AF78607B68002B01D10123FFE07B6803
:101A9000814A9B5CDBB2002B08D17A68AA239B00A9
:101AA0000021D1547B68180008F000FD7B687A4A59
:101AB000032199547B681B68180003F02FFD0F2346
:101AC000FB1800221A7058E00F203B181B78796829
:101AD0005A1C13009B009B18DB00CB18013301221A
:101AE0001A703B181B7879685A1C13009B009B18CE
:101AF000DB003A1812785A5404003B181A783B1944
:101B00001B7898B2796813009B009B18DB00CB18F8
:101B10003633021C1A803B191B7879685A1C130053
:101B20009B009B18DB00CB18033300221A703B1973
:101B30001A78796813009B009B18DB00CB183833A8
:101B400000221A603B191A78796813009B009B18D1
:101B5000DB00CB183C3300221A603B191A787968F5
:101B600013009B009B18DB00CB18403300221A6047
:101B70003B191A783B1901321A700F217B181A7819
:101B80007B685B689A429FD37B1800221A7056E0EC
:101B90000F243B191A7878686A23FF331900130061
:101BA0009B009B18DB00C3185B1800221A703B19BE
:101BB0001A787868B423590013009B009B18DB0047
:101BC000C3185B183A1912781A703B191A7878689A
:101BD0006C23FF33190013009B009B18DB00C31814
:101BE0005B1800221A703B191A787868BC235900D8
:101BF00013009B009B18DB00C3185B1800221A60BF
:101C00003B191A787868BE23590013009B009B1873
:101C1000DB00C3185B1800221A603B191A78786839
:101C2000C023590013009B009B18DB00C3185B18EE
:101C300000221A603B191A783B1901321A700F23DF
:101C4000FB181A787B685B689A42A1D37B68186896
:101C50007B686A4611001A00103270CA70C130CA1F
:101C600030C159689A68DB6803F072FC7B682422F3
:101C7000002199547B68084A012199547B68DB69EB
:101C8000012B03D17B68180001F034FD00231800FC
:101C9000BD4605B0F0BDC046A902000080B582B0C7
:101CA00000AF78607A68AA239B00D35C012B01D136
:101CB000022314E07A68AA239B000121D1547B6897
:101CC0001B68180003F014FC7B681B68180005F003
:101CD0006BFB7A68AA239B000021D15400231800D3
:101CE000BD4602B080BD000080B582B000AF786014
:101CF0007B681B68180005F06DFB020080231B0247
:101D00001A4080231B029A4203D17B68180000F01E
:101D1000BBFB7B681B68180005F05CFB020080239E
:101D2000DB001A408023DB009A4214D17B681B68D9
:101D300044229B5A9AB27B681B68A2490A4091B21E
:101D4000442299527B68180008F03BFC7B68002114
:101D5000180000F045F97B681B68180005F03AFB95
:101D600002008023DB011A408023DB019A420BD161
:101D70007B681B6844229B5A9AB27B681B68924915
:101D80000A4091B2442299527B681B68180005F002
:101D900021FB020080239B011A4080239B019A4271
:101DA0000BD17B681B6844229B5A9AB27B681B68E4
:101DB00086490A4091B2442299527B681B681800F8
:101DC00005F008FB020080235B011A4080235B01C1
:101DD0009A4237D17B681B6840229B5A9AB27B6833
:101DE0001B6804218A4391B2402299527B681B6888
:101DF00040229B5A9AB27B681B6808218A4391B2A1
:101E0000402299527A68B8239B00D35C012B09D1F8
:101E10007A68B8239B000021D1547B680021180008
:101E200001F092FC7B68180008F00CFC7B681B68D2
:101E300044229B5A9AB27B681B6865490A4091B25A
:101E4000442299527B681B68180005F0C3FA02000F
:101E500080231B011A4080231B019A4227D17B68F3
:101E60001B6840229B5A9AB27B681B6808210A4370
:101E700091B2402299527B681B6844229B5A9AB2C5
:101E80007B681B6853490A4091B2442299527B688F
:101E90001B6840229B5A9AB27B681B6804210A4344
:101EA00091B2402299527B68180008F0AFFB7B6822
:101EB0001B68180005F08EFA030080221340802B67
:101EC00045D17B681B6844229B5A9AB27B681B6889
:101ED00080218A4391B2442299527A68B8239B00A8
:101EE000D35C002B2FD17B681B6840229B5A9AB28F
:101EF0007B681B6804210A4391B2402299527B6897
:101F00001B6840229B5A9AB27B681B6808210A43CF
:101F100091B2402299527A68B8239B000121D15492
:101F20007B681B6854229B5A9BB29B083C2213403F
:101F300019007A68B9239B00D1507B6801211800F1
:101F400001F002FC03E07B68180008F05FFB7B688F
:101F50001B68180005F03EFA020080239B001A401F
:101F600080239B009A420FD17B681B6844229B5AB6
:101F70009AB27B681B6818490A4091B24422995270
:101F80007B68180008F00EFB7B681B68180005F0E2
:101F900021FA020080235B001A4080235B009A42F2
:101FA0000BD17B681B6844229B5A9AB27B681B68E2
:101FB0000A490A4091B244229952C046BD4602B035
:101FC00080BDC046FFFBFFFFFFBFFFFFFFDFFFFF3E
:101FD000FFEFFFFFFFF7FFFFFFFDFFFFFFFEFFFF2C
:101FE00080B582B000AF78600A00FB1C1A707A6876
:101FF000AA239B00D35C012B01D1022317E07A684E
:10200000AA239B000121D1547B68FA1C2421127859
:102010005A547B681A68FB1C1B781900100005F0E5
:10202000AFF97A68AA239B000021D154002318003D
:10203000BD4602B080BD90B585B000AF78600C00A1
:1020400010001900FB1C221C1A703B00021C1A8095
:10205000BB1C0A1C1A700B23FB1800221A70FB1CF5
:102060001B785BB2002B0FDAFB1C1B780722134096
:102070005A1C13009B009B18DB007A68D318FB6086
:10208000FB6801225A700FE0FB1C1B7807221A40E4
:1020900013009B009B18DB006933FF337A68D31869
:1020A000FB60FB6800225A70FB1C1B780722134060
:1020B000DAB2FB681A703B001A88FB681A61FB6889
:1020C000BA1C1278DA70FB685B78002B04D0FB68CE
:1020D0001B789AB2FB68DA81BB1C1B78022B02D1F9
:1020E000FB6800221A717A68AA239B00D35C012B3B
:1020F00001D1022313E07A68AA239B000121D15465
:102100007B681B68FA681100180003F049FA7A68C6
:10211000AA239B000021D1540B23FB181B78180025
:10212000BD4605B090BD80B584B000AF78600A00B0
:10213000FB1C1A70FB1C1B785BB2002B0FDAFB1C1C
:102140001B78072213405A1C13009B009B18DB00CE
:102150007A68D318FB60FB6801225A700FE0FB1C01
:102160001B7807221A4013009B009B18DB00693381
:10217000FF337A68D318FB60FB6800225A70FB1C9F
:102180001B7807221340DAB2FB681A707A68AA2318
:102190009B00D35C012B01D1022311E07A68AA23B2
:1021A0009B000121D1547B681B68FA68110018005C
:1021B00003F06AFD7A68AA239B000021D154002312
:1021C0001800BD4604B080BD80B586B000AFF86091
:1021D0007A603B600B203B180A1C1A7001007B18C8
:1021E0001B7807221A4013009B009B18DB00693301
:1021F000FF33FA68D3187B617B697A685A617B691F
:102200003A689A617B690022DA617B6900225A7020
:102210007B181B7807221340DAB27B691A707B188F
:102220001B780722134007D1FB681B687A691100ED
:10223000180003F0E9FE06E0FB681B687A691100EC
:10224000180003F0E1FE00231800BD4606B080BD73
:1022500080B582B000AF78600A00FB1C1A70FB1CCE
:102260001B7807221A407868C223590013009B008C
:102270009B18DB00C3185B181B681800BD4602B032
:1022800080BD80B586B000AFF8607A603B600B20FF
:102290003B180A1C1A703B181B78072213405A1C63
:1022A00013009B009B18DB00FA68D3187B617B69E5
:1022B0007A685A617B693A689A617B6924220121B4
:1022C00099547B693A681A627B690022DA617B69FA
:1022D00001225A703B181B7807221340DAB27B693F
:1022E0001A703B181B780722134007D1FB681B6844
:1022F0007A691100180003F087FE06E0FB681B688E
:102300007A691100180003F07FFE00231800BD4613
:1023100006B080BD80B584B000AF78600A00FB1CB9
:102320001A70FB1C1B7807221A407B685B689A4274
:1023300001D9012346E0FB1C1B785BB2002B0FDAAE
:10234000FB1C1B78072213405A1C13009B009B1890
:10235000DB007A68D318FB60FB6801225A700DE03D
:10236000FB1C1A7813009B009B18DB006933FF33BA
:102370007A68D318FB60FB6800225A70FB68012260
:102380009A70FB1C1B7807221340DAB2FB681A70A4
:102390007A68AA239B00D35C012B01D1022311E0B0
:1023A0007A68AA239B000121D1547B681B68FA68D4
:1023B0001100180004F0E2FE7A68AA239B000021B5
:1023C000D15400231800BD4604B080BD80B584B050
:1023D00000AF78600A00FB1C1A70FB1C1B780F22F0
:1023E0001A407B685B689A4201D9012348E0FB1CD4
:1023F0001B785BB2002B0FDAFB1C1B780722134003
:102400005A1C13009B009B18DB007A68D318FB60F2
:10241000FB6801225A700FE0FB1C1B7807221A4050
:1024200013009B009B18DB006933FF337A68D318D5
:10243000FB60FB6800225A70FB6800229A70FB1C4C
:102440001B7807221340DAB2FB681A707A68AA2355
:102450009B00D35C012B01D1022311E07A68AA23EF
:102460009B000121D1547B681B68FA681100180099
:1024700004F0D4FE7A68AA239B000021D1540023E3
:102480001800BD4604B080BDB0B596B000AF78600E
:1024900000F0D8FB7B681A6856203B184421525A3A
:1024A0001A803B181B88DAB255243B190F210A40C9
:1024B0001A703B191B78002B00D079E13B181B8860
:1024C0001022134054D17B681B681B889AB20E20DF
:1024D0003B18AF490A401A807B681B683A1812887B
:1024E000AC490A4392B21A807B682833FB647B684C
:1024F0001B6850229B5A9BB21A00FB6C1B78DB00B6
:10250000D2187B681B68D318A34A944663441B887F
:102510009B059A0DFB6CDA61FB6C5A69FB6CDB69FD
:10252000D218FB6C5A617B680021180008F01CF877
:102530007B6824229B5CDBB2002B01D100F082FB84
:10254000FB6C9B69002B01D000F07CFB7B68242294
:102550009B5CDBB2802252421343DAB27B681B6879
:1025600091B24C2299527B6824220021995469E34C
:102570007B686933FF33FB647B681A6852217B18E0
:1025800012881A807B181A8880231B01134037D0C9
:102590007B681B6850229B5A9BB21A00FB6C1B780D
:1025A000DB00D2187B681B68D3187C4A94466344CE
:1025B0001B889B059A0DFB6CDA617B6818687B6849
:1025C000AC2292009918FB6CDA88FB6CDB699BB239
:1025D00004F052FF7B681B681B889AB210203B18DE
:1025E0006F490A401A807B681B683A18128880215C
:1025F0000A4392B21A807B68180007F07FFF21E33C
:102600005223FB1800229B5E002B00DB1AE37B6841
:102610001B681B889AB21E203B1861490A401A8029
:102620007B681B683A18128880210A4392B21A808C
:102630007B681B6850229B5A9BB21A00FB6C1B786C
:10264000DB00D2187B681B68D318544A9446634455
:102650001B889B059A0DFB6CDA61FB6CDB69002B18
:102660001AD0FB6C5B69002B16D07B681868FB6C7A
:102670005969FB6CDA88FB6CDB699BB204F0FCFEE9
:10268000FB6C5A69FB6CDB69D218FB6C5A617B6886
:102690000021180007F047FF7B681B681B889BB26E
:1026A0001A0080231B01134000D0CBE27B681B681B
:1026B000BB617B681B6850229B5A9BB21A00BB69A6
:1026C0009B18BB61BB69354A944663447B61FB6CD4
:1026D0001B69002B10D17B691B889BB2314A1340C8
:1026E0009AB27B691A807B691B889BB2294A134383
:1026F0009AB27B691A802BE0FB6C1B693E2B12D8C7
:10270000FB6C1B695B087B64FB6C1B69012213403B
:1027100002D07B6C01337B647B6C9BB29B029AB2D0
:102720007B691A8014E0FB6C1B695B097B64FB6CA2
:102730001B691F22134002D17B6C013B7B647B6CC5
:102740009BB29B029BB2134A13439AB27B691A80D5
:102750007B681B681B889AB212203B1812490A40FA
:102760001A803B183A181288802149014A401A8081
:102770003B183A181288802189014A401A807B68E8
:102780001B683A18128809490A4392B21A8059E222
:102790000F8FFFFF0080FFFF02040000060400000F
:1027A0008F0F0000FF83FFFF8FBFFFFF8080FFFFC1
:1027B0007B681B681A0055203B181B789B00D218B9
:1027C00052217B1812881A807B1800229B5E002BF6
:1027D00000DBFAE07B681B681A003B181B789B0043
:1027E000D3181B889AB250243B19CF490A401A804B
:1027F0007B681B681A003B181B789B00D3183A199A
:10280000128880210A4392B21A803B181A7813006A
:102810009B009B18DB006933FF337A68D318FB6495
:10282000FB6C1B7B002B25D17B681B6850229B5ABD
:102830009BB21A00FB6C1B78DB00D2187B681B680C
:10284000D318BA4A944663441A8848243B1992051F
:10285000920D1A803B191B88002B00D18DE07B68FC
:102860001868FB6C5969FB6CDA883B191B8804F00B
:1028700003FE82E0FB6CDB78022B0CD14823FC18B2
:102880005223FB181A88F96C7B68180000F0EEF9E7
:102890000300238071E07B681B681A00FB6C1B78C7
:1028A0009B00D3181B889AB24A203B18A0490A40C3
:1028B0001A807B681B681A00FB6C1B789B00D3187E
:1028C0003A1812889B490A4392B21A807B681B68A7
:1028D0001A00FB6C1B789B00D3181B889BB21A0054
:1028E0008023DB01134024D07B681B6850229B5A55
:1028F0009BB21A00FB6C1B78DB00D2187B681B684C
:10290000D3188D4A944663441A8848243B1992058B
:10291000920D1A803B191B88002B2ED07B681868FB
:10292000FB6C5969FB6C1A893B191B8804F0A4FDE8
:1029300023E07B681B6850229B5A9BB21A00FB6CF9
:102940001B78DB00D2187B681B68D318774A944643
:1029500063441A8848243B199205920D1A803B194A
:102960001B88002B09D07B681868FB6C5969FB6CCD
:102970005A893B191B8804F07FFDFB6CDA694821FA
:102980007B181B88D218FB6CDA61FB6C5A697B18C8
:102990001B88D218FB6C5A61FB6C9B69002B05D01D
:1029A0007B181A88FB6C1B699A4207D2FB6C1A7859
:1029B0007B681100180007F0B6FD06E07B681B6815
:1029C000FA6C1100180003F01FFB52243B191B88FE
:1029D0008022134000D135E155203B181B785A1C4A
:1029E00013009B009B18DB007A68D318FB647B689C
:1029F0001B681A003B181B789B00D3181B889AB2DF
:102A000042257B194D490A401A807B681B681A00D1
:102A10003B181B789B00D3187A19128848490A433F
:102A200092B21A80FB6CDB78022B00D1ADE0FB6C1C
:102A300000229A613B191B884022134046D0FB6C50
:102A40005B78002B25D17B681B687B627B681B68E9
:102A500050229B5A9BB21A007B6A9B187B62FB6CCC
:102A60001B78DA007B6AD318334A944663443B628E
:102A70003B6A1B889BB2334A13409AB23B6A1A8066
:102A80003B6A1B889BB22E4A13439AB23B6A1A8058
:102A900073E0FB6C5B78012B6FD17B681B68FB627A
:102AA0007B681B6850229B5A9BB21A00FB6A9B18DA
:102AB000FB62FB6C1B78DA00FB6AD3181E4A944653
:102AC0006344BB62BB6A00221A8056E07B681B68C5
:102AD000FB63FB6C5B78002B36D17B681B687B63E8
:102AE0007B681B6850229B5A9BB21A007B6B9B1819
:102AF0007B63FB6C1B78DA007B6BD3180B4A944624
:102B000063443B633B6B1B889BB20E4A13409AB2F3
:102B10003B6B1A803B6B1B889BB2094A13439AB2EA
:102B20003B6B1A8029E0C0468F0F000006040000AE
:102B30008F8FFFFFC080FFFF020400000F8FFFFF99
:102B40000080FFFFFF83FFFFFB6C5B78012B14D13C
:102B50007B681B6850229B5A9BB21A00FB6B9B1828
:102B6000FB63FB6C1B78DA00FB6BD3183D4A944681
:102B70006344BB63BB6B00221A80FB6C1A787B68D2
:102B80001100180007F0F0FC5CE0FB6CDB78022B16
:102B900050D15223FB181A8880235B00134049D17F
:102BA0007B681B6850229B5A9BB21A00FB6C1B78F7
:102BB000DB00D2187B681B68D3182B4A9446634409
:102BC0001A8840217B189205920D1A80FB6C9A6935
:102BD0007B181B889A4207D9FB6C9A697B181B8863
:102BE000D21AFB6C9A6102E0FB6C00229A61FB6CCA
:102BF0009B69002B07D1FB6C1A787B6811001800C9
:102C000007F0B2FC1EE0FB6C5A6940217B181B8860
:102C1000D218FB6C5A61FB6CDA697B181B88D218DE
:102C2000FB6CDA617B681B68FA6C1100180003F01A
:102C3000EBF907E05223FB181A88F96C7B6818003F
:102C400000F030F97B681B6844229B5A9BB21BB290
:102C5000002B01DAFFF71EFC00231800BD4616B05A
:102C6000B0BDC046060400000204000090B589B063
:102C700000AFF860B960BB1D1A80BB1D1A888023A5
:102C8000DB01134000D17DE0FB681B6850229B5A9A
:102C90009BB21A00BB681B78DB00D218FB681B686C
:102CA000D3187A4A944663441A881A217B189205ED
:102CB000920D1A80BB689A697B181B889A4207D3C9
:102CC000BB689A697B181B88D21ABB689A6102E0BC
:102CD000BB6800229A61BB689B69002B21D1FB680D
:102CE0001B681A00BB681B789B00D3181B889AB21C
:102CF00018203B1866490A401A803B183A18128877
:102D0000802189014A401A80FB681B681A00BB6851
:102D10001B789B00D3183A1812885E490A4392B276
:102D20001A80BB1D1B88402213401AD0FB681B6809
:102D30001A00BB681B789B00D3181B889AB2162018
:102D40003B1855490A401A80FB681B681A00BB688B
:102D50001B789B00D3183A18128850490A4392B244
:102D60001A801A243B191B88002B00D186E0FB68CF
:102D70001868BB685969BB681A893B191B8804F03D
:102D80007BFB7BE0FB681B6850229B5A9BB21A00BE
:102D9000BB681B78DB00D218FB681B68D318404A5D
:102DA000944663441A881A217B189205920D1A8062
:102DB000BB689A697B181B889A4207D3BB689A69DB
:102DC0007B181B88D21ABB689A6102E0BB6800229C
:102DD0009A61BB689B69002B21D1FB681B681A00B4
:102DE000BB681B789B00D3181B889AB21E203B1827
:102DF00027490A401A803B183A1812888021890115
:102E00004A401A80FB681B681A00BB681B789B004D
:102E1000D3183A1812881F490A4392B21A80BB1D70
:102E20001B88402213401AD1FB681B681A00BB683C
:102E30001B789B00D3181B889AB21C203B1816499C
:102E40000A401A80FB681B681A00BB681B789B004D
:102E5000D3183A18128811490A4392B21A801A24D8
:102E60003B191B88002B09D0FB681868BB6859699F
:102E7000BB685A893B191B8804F0FEFA1A23FB1819
:102E80001B881800BD4609B090BDC0460204000072
:102E90008FBFFFFF8080FFFF8F8FFFFFC080FFFF8E
:102EA0000604000080B5A2B000AFF860B960BB1D99
:102EB0001A80BB1D1B884022134000D1C8E1FB686B
:102EC0001B6850229B5A9BB21A00BB681B78DB0020
:102ED000D218FB681B68D318D74A944663441A88F3
:102EE0004E217B189205920D1A80BB689A697B1857
:102EF0001B889A4207D9BB689A697B181B88D21A2B
:102F0000BB689A6102E0BB6800229A61BB689B695A
:102F1000002B00D0B5E0BB685B78002B25D1FB68A7
:102F20001B68BB62FB681B6850229B5A9BB21A004D
:102F3000BB6A9B18BB62BB681B78DA00BB6AD318FC
:102F4000BD4A944663447B627B6A1B889BB2BB4A42
:102F500013409AB27B6A1A807B6A1B889BB2B84A7C
:102F600013439AB27B6A1A801BE0BB685B78012B23
:102F700017D1FB681B683B63FB681B6850229B5A98
:102F80009BB21A003B6B9B183B63BB681B78DA0053
:102F90003B6BD318A84A94466344FB62FB6A002249
:102FA0001A80FB681B683B62BB685B78002B25D1ED
:102FB000FB681B68BB61FB681B6850229B5A9BB275
:102FC0001A00BB699B18BB61BB681B78DA00BB6940
:102FD000D3189C4A944663447B617B691B889BB2EF
:102FE000964A13409AB27B691A807B691B889BB210
:102FF000934A13439AB27B691A8018E0BB685B78E6
:10300000012B14D1FB681B6850229B5A9BB21A00FB
:103010003B6A9B183B62BB681B78DA003B6AD3189B
:10302000884A94466344FB61FB6900221A80BB68AE
:103030001A78FB681100180007F096FABB1D1A8871
:103040008023DB01134000D1D4E2FB681B681A0027
:10305000BB681B789B00D3181B889AB212203B18C0
:1030600079490A401A80FB681B681A00BB681B7804
:103070009B00D3183A18128874490A4392B21A80F6
:10308000B8E2BB1D1A888023DB0113401AD0FB680D
:103090001B681A00BB681B789B00D3181B889AB268
:1030A00044203B1868490A401A80FB681B681A00D4
:1030B000BB681B789B00D3183A18128863490A43EF
:1030C00092B21A80BB6824229B5C012B00D091E253
:1030D000BB685A694E217B181B88D218BB685A619D
:1030E000BB68DA697B181B88D218BB68DA61BB68D9
:1030F0001A6ABB681B699A4209D3BB681B693B65A6
:10310000BB681A6A3B6DD21ABB681A6216E0BB68CC
:103110001B6A002B08D14E23FB181B883B65BB683C
:1031200024220021995409E0BB68242200219954EB
:10313000BB681B6A3B65BB6800221A62BB685B7890
:10314000002B50D1FB681B68BB63FB681B685022D7
:103150009B5A9BB21A00BB6B9B18BB63BB681B7866
:10316000DA00BB6BD318344A944663447B633B6DEF
:10317000002B10D17B6B1B889BB2304A13409AB254
:103180007B6B1A807B6B1B889BB22D4A13439AB2D0
:103190007B6B1A8044E03B6D3E2B10D83B6D5B0887
:1031A000BB643B6D0122134002D0BB6C0133BB6496
:1031B000BB6C9BB29B029AB27B6B1A8030E03B6D7A
:1031C0005B09BB643B6D1F22134002D1BB6C013B0A
:1031D000BB64BB6C9BB29B029BB2194A13439AB26D
:1031E0007B6B1A801CE0BB685B78012B18D1FB68F5
:1031F0001B683B64FB681B6850229B5A9BB21A00F9
:103200003B6C9B183B64BB681B78DA003B6CD318A3
:10321000094A94466344FB633B6D9AB2FB6B1A8088
:10322000FB681868BB685969BB681A893B6D9BB21B
:1032300004F0DEF8DEE1C04602040000FF83FFFF79
:103240000080FFFF060400008F8FFFFF80C0FFFF9C
:10325000FB681B6850229B5A9BB21A00BB681B7804
:10326000DB00D218FB681B68D318CA4A9446634433
:103270001A884E217B189205920D1A80BB689A69B4
:103280007B181B889A4207D3BB689A697B181B88F6
:10329000D21ABB689A6102E0BB6800229A61BB68DF
:1032A0009B69002B00D0C0E0BB685B78002B25D168
:1032B000FB681B68FB66FB681B6850229B5A9BB22D
:1032C0001A00FB6E9B18FB66BB681B78DA00FB6E6E
:1032D000D318B14A94466344BB66BB6E1B889BB24D
:1032E000AE4A13409AB2BB6E1A80BB6E1B889BB26B
:1032F000AB4A13439AB2BB6E1A801BE0BB685B7883
:10330000012B17D1FB681B687B67FB681B68502289
:103310009B5A9BB21A007B6F9B187B67BB681B781C
:10332000DA007B6FD3189C4A944663443B673B6F3B
:1033300000221A80FB681B68BB67BB685B78002BA8
:1033400030D1FB681B6880217A181360FB681B680A
:1033500050229B5A9BB21A007B181B689B187A1844
:103360001360BB681B78DA007B181B68D318894A86
:103370009446634484217A1813607B181B681B8869
:103380009BB2864A13409AB27B181B681A807B183E
:103390001B681B889BB2824A13439AB27B181B6836
:1033A0001A8018E0BB685B78012B14D1FB681B689E
:1033B00050229B5A9BB21A00BB6F9B18BB67BB681D
:1033C0001B78DA00BB6FD318724A94466344FB67DC
:1033D000FB6F00221A80BB681A78FB681100180086
:1033E00007F0C2F8BB1D1A888023DB01134000D010
:1033F00000E1FB681B681A00BB681B789B00D318B0
:103400001B889AB246203B1866490A401A80FB681E
:103410001B681A00BB681B789B00D3183A181288E7
:1034200061490A4392B21A80E4E0BB1D1A888023E6
:10343000DB0113401AD1FB681B681A00BB681B78BC
:103440009B00D3181B889AB24C203B1855490A4060
:103450001A80FB681B681A00BB681B789B00D31896
:103460003A18128850490A4392B21A80BB68242243
:103470009B5C012B00D0BDE0BB685A694E217B18D4
:103480001B88D218BB685A61BB68DA697B181B8835
:10349000D218BB68DA61BB681A6ABB681B699A42BA
:1034A00009D3BB681B693B65BB681A6A3B6DD21ABE
:1034B000BB681A6216E0BB681B6A002B08D14E235A
:1034C000FB181B883B65BB6824220021995409E046
:1034D000BB681B6A3B65BB6800221A62BB6824227A
:1034E00000219954FB681B687B66BB685B78002BE6
:1034F0005CD1FB681B68FB65FB681B6850229B5A0C
:103500009BB21A00FB6D9B18FB65BB681B78DA0049
:10351000FB6DD3181F4A94466344BB653B6D002B7B
:1035200010D1BB6D1B889BB21C4A13409AB2BB6D75
:103530001A80BB6D1B889BB2194A13439AB2BB6DAC
:103540001A804DE03B6D3E2B10D83B6D5B087B65D0
:103550003B6D0122134002D07B6D01337B657B6D97
:103560009BB29B029AB2BB6D1A8039E03B6D5B093E
:103570007B653B6D1F22134002D17B6D013B7B6558
:103580007B6D9BB29B029BB2054A13439AB2BB6D03
:103590001A8025E00604000002040000FF83FFFFFC
:1035A0000080FFFF8F8FFFFF80C0FFFFBB685B784D
:1035B000012B15D1FB681B6850229B5A9BB21A0045
:1035C0007B6E9B187B66BB681B78DA007B6ED3181A
:1035D0001E4A944663443B663B6D9AB23B6E1A802A
:1035E000FB681868BB685969BB685A893B6D9BB218
:1035F00003F0FEFEFB681B681A00BB681B789B008B
:10360000D3181B889AB210203B1811490A401A801F
:103610003B183A18128810214A401A803B183A1871
:10362000128820214A401A80FB681B681A00BB6878
:103630001B789B00D3183A18128806490A4392B2A5
:103640001A8000231800BD4622B080BD0604000089
:10365000BF8FFFFF8080FFFF90B587B000AFF8609D
:10366000080011007B600A243B19021C1A80082301
:10367000FB180A1C1A8021007B181B88802213402B
:103680009BB2002B0CD07B181B88072213405A1CBE
:1036900013009B009B18DB00FA68D3187B610BE0DA
:1036A0000A23FB181A8813009B009B18DB00693360
:1036B000FF33FA68D3187B610823FB181B88002BA3
:1036C00007D17B6900221A737B689AB27B69DA8022
:1036D0000BE07B6901221A737B689AB27B691A81BD
:1036E0007B681B0C9AB27B695A8100231800BD4687
:1036F00007B090BD80B584B000AF78607B681B6870
:10370000FB607A68BA239B000121D1507A68B82304
:103710009B000021D154FB6854229B5A9BB201228A
:10372000134399B2FB6854229952FB6854229B5A66
:103730009BB20222134399B2FB6854229952002390
:103740001800BD4604B080BD80B582B000AF78607F
:103750000A00FB1C1A70C046BD4602B080BD0000C6
:1037600080B588B000AF78607B68002B02D1012360
:1037700000F076FB7B681B680122134000D18EE0CD
:10378000C54B5B680C221340042B0ED0C24B5B6808
:103790000C221340082B17D1BF4B5A68C0235B0281
:1037A0001A4080235B029A420ED1BB4B1A688023D9
:1037B0009B02134000D171E07B685B68002B00D056
:1037C0006CE0012300F04CFB7B685B68012B07D1A8
:1037D000B14B1A68B04B802149020A431A602FE0AE
:1037E0007B685B68002B0CD1AB4B1A68AA4BAB49CA
:1037F0000A401A60A84B1A68A74BA9490A401A60E8
:103800001EE07B685B68052B0ED1A34B1A68A24BA8
:103810008021C9020A431A609F4B1A689E4B80217F
:1038200049020A431A600BE09B4B1A689A4B9B496A
:103830000A401A60984B1A68974B99490A401A60D7
:103840007B685B68002B14D0FDF7B0FE0300BB6102
:1038500008E0FDF7ABFE0200BB69D31A642B01D967
:103860000323FDE28C4B1A6880239B021340F0D0A7
:1038700015E0FDF79BFE0300BB6108E0FDF796FE37
:103880000200BB69D31A642B01D90323E8E2824BFF
:103890001A6880239B021340F0D100E0C0467B6889
:1038A0001B680222134000D16CE07B4B5B680C224A
:1038B00013400ED0784B5B680C221340082B1FD1AD
:1038C000754B5A68C0235B021A4080231B029A4240
:1038D00016D1714B1B680222134005D07B68DB6850
:1038E000012B01D00123BBE26B4B1B68F8229343F1
:1038F00019007B681B69DA00674B0A431A6041E0D4
:103900007B68DB68002B24D0634B1A68624B012173
:103910000A431A60FDF74AFE0300BB6108E0FDF7A9
:1039200045FE0200BB69D31A022B01D9032397E29B
:10393000594B1B6802221340F1D0574B1B68F822E9
:10394000934319007B681B69DA00534B0A431A60E2
:1039500018E0514B1A68504B01218A431A60FDF759
:1039600025FE0300BB6108E0FDF720FE0200BB69F5
:10397000D31A022B01D9032372E2474B1B680222A0
:103980001340F1D17B681B680822134036D07B6856
:10399000DB69002B19D0404B5A6A3F4B01210A4387
:1039A0005A62FDF703FE0300BB6108E0FDF7FEFD70
:1039B0000200BB69D31A022B01D9032350E2364B14
:1039C0005B6A02221340F1D018E0334B5A6A324B43
:1039D00001218A435A62FDF7E9FD0300BB6108E05B
:1039E000FDF7E4FD0200BB69D31A022B01D90323C2
:1039F00036E2294B5B6A02221340F1D17B681B68D7
:103A00000422134000D1B5E01F203B1800221A7099
:103A1000214BDA6980235B05134010D11E4BDA6914
:103A20001D4B802149050A43DA611B4BDA6980236B
:103A30005B051340FB60FB683B1801221A70194BB1
:103A40001A6880235B0013401AD1164B1A68154B75
:103A5000802149000A431A60FDF7A8FD0300BB61FD
:103A600008E0FDF7A3FD0200BB69D31A642B01D95E
:103A70000323F5E10B4B1A6880235B001340F0D061
:103A80007B689B68012B0FD1034B1A6A024B012103
:103A90000A431A6236E0C04600100240FFFFFEFFF4
:103AA000FFFFFBFF007000407B689B68002B0CD180
:103AB000CA4B1A6AC94B01218A431A62C74B1A6A58
:103AC000C64B04218A431A621CE07B689B68052B65
:103AD0000CD1C24B1A6AC14B04210A431A62BF4B74
:103AE0001A6ABE4B01210A431A620BE0BB4B1A6AE9
:103AF000BA4B01218A431A62B84B1A6AB74B0421A8
:103B00008A431A627B689B68002B14D0FDF74EFD38
:103B10000300BB6109E0FDF749FD0200BB69D31A50
:103B2000AF4A934201D903239AE1AC4B1B6A0222AC
:103B30001340F0D013E0FDF739FD0300BB6109E04D
:103B4000FDF734FD0200BB69D31AA54A934201D99F
:103B5000032385E1A14B1B6A02221340F0D11F23EE
:103B6000FB181B78012B05D19C4BDA699B4B9D49B7
:103B70000A40DA617B681B681022134063D07B68BF
:103B80005B69012B2AD1954B5A6B944B04210A4354
:103B90005A63924B5A6B914B01210A435A63FDF7CA
:103BA00005FD0300BB6108E0FDF700FD0200BB69F5
:103BB000D31A022B01D9032352E1884B5B6B0222FB
:103BC0001340F1D0854B5B6BF822934319007B685F
:103BD0009B69DA00814B0A435A6334E07B685B6976
:103BE000053311D17D4B5A6B7C4B04218A435A63B8
:103BF0007A4B5B6BF822934319007B689B69DA0070
:103C0000764B0A435A631EE0744B5A6B734B042184
:103C10000A435A63714B5A6B704B01218A435A63B2
:103C2000FDF7C4FC0300BB6108E0FDF7BFFC020028
:103C3000BB69D31A022B01D9032311E1674B5B6BDC
:103C400002221340F1D17B681B68202213405CD014
:103C5000624B5B680C2213400C2B0ED05F4B5B68F1
:103C60000C221340082B14D15C4B5A68C0235B0212
:103C70001A40C0235B029A420BD1584B5A6B8023E7
:103C80005B02134040D07B681B6A012B3CD00123B0
:103C9000E6E07B681B6A002B1BD0504B5A6B4F4BE6
:103CA000802149020A435A63FDF780FC0300BB618F
:103CB00008E0FDF77BFC0200BB69D31A022B01D997
:103CC0000323CDE0454B5A6B80235B021340F0D0B9
:103CD0001BE0424B5A6B414B43490A405A63FDF784
:103CE00065FC0300BB6108E0FDF760FC0200BB69F6
:103CF000D31A022B01D90323B2E0384B5A6B80232D
:103D00005B021340F0D100E0C0467B685B6A002B89
:103D100000D1A4E0314B5B680C221340082B00D18A
:103D200078E07B685B6A022B4CD12C4B1A682B4BDA
:103D30002E490A401A60FDF739FC0300BB6108E018
:103D4000FDF734FC0200BB69D31A022B01D903230F
:103D500086E0224B1A6880239B041340F0D11F4B4E
:103D6000DB6A0F22934319007B681A6B1B4B0A43D3
:103D7000DA621A4B5B681E4A134019007B68DA6AE4
:103D80007B689B6A1A43154B0A435A60134B1A68A7
:103D9000124B802149040A431A60FDF707FC030017
:103DA000BB6108E0FDF702FC0200BB69D31A022BDD
:103DB00001D9032354E0094B1A6880239B04134064
:103DC000F0D04CE0054B1A68044B08490A401A60D1
:103DD000FDF7ECFB0300BB6115E0C046001002409C
:103DE00088130000FFFFFFEFFFFFFEFFFFFFFFFE56
:103DF000FF7FC2FFFDF7DAFB0200BB69D31A022B7B
:103E000001D903232CE0184B1A6880239B0413402C
:103E1000F0D124E07B685B6A012B01D101231FE014
:103E2000114B5B687B61104BDB6A3B617A69C02395
:103E30005B021A407B689B6A9A420ED13B690F2253
:103E40001A407B681B6B9A4207D17A69F0239B0367
:103E50001A407B68DB6A9A4201D0012300E000230C
:103E60001800BD4608B080BD0010024080B584B087
:103E700000AF786039607B68002B01D10123BFE07F
:103E8000614B1B68012213403A689A4211D95E4B7C
:103E90001B680122934319005B4B3A680A431A607E
:103EA000594B1B68012213403A689A4201D0012302
:103EB000A6E07B681B680222134015D07B681B6854
:103EC0000422134006D0514B5A68504BE021C900E0
:103ED0000A435A604D4B5B68F022934319007B689C
:103EE0009A684A4B0A435A607B681B680122134058
:103EF0004CD07B685B68012B07D1444B1A68802348
:103F00009B02134020D101237AE07B685B68022B7F
:103F100007D13E4B1A6880239B04134014D1012320
:103F20006EE07B685B68032B07D1384B5A6B8023AC
:103F30005B02134008D1012362E0344B1B6802226C
:103F4000134001D101235BE0304B5B6803229343B4
:103F500019007B685A682D4B0A435A60FDF726FB0F
:103F60000300FB6009E0FDF721FB0200FB68D31AA8
:103F7000274A934201D9032342E0244B5B680C2279
:103F80001A407B685B689B009A42ECD11E4B1B6811
:103F9000012213403A689A4211D21B4B1B6801223E
:103FA00093431900184B3A680A431A60164B1B6872
:103FB000012213403A689A4201D0012320E07B6835
:103FC0001B680422134009D0104B5B68114A134050
:103FD00019007B68DA680D4B0A435A6000F020F83C
:103FE00001000A4B5B681B090F2213400A4AD35C8D
:103FF0000A00DA40094B1A600320FCF727FF002370
:104000001800BD4604B080BD0020024000100240F0
:1040100088130000FFF8FFFFF8B600080400002036
:1040200090B58FB000AF1423FB18384A13CA13C3DE
:1040300012681A603B1D364A13CA13C312681A600D
:104040000023FB620023BB6200237B6300237B62AF
:1040500000233B632F4B5B68FB62FB6A0C2213401F
:104060000C2B47D049D8042B02D0082B03D044E0B6
:10407000294B3B6344E0FB6A9B0C0F221340142244
:10408000BA18D35C7B62234BDB6A0F2213403A1DC4
:10409000D35CBB62FA6AC0235B021A4080235B02D6
:1040A0009A4209D1B96A1C48FCF72EF803001A009D
:1040B0007B6A53437B631AE0FA6AC0235B021A40AF
:1040C000C0235B029A4209D1B96A1448FCF71CF874
:1040D00003001A007B6A53437B6308E0B96A104807
:1040E000FCF712F803001A007B6A53437B637B6B77
:1040F0003B6305E0094B3B6302E0094B3B63C04671
:104100003B6B1800BD460FB090BDC04608B6000816
:1041100018B60008001002400024F400006CDC0215
:1041200000127A0080B500AF024B1B681800BD4634
:1041300080BDC0460400002080B500AFFFF7F2FF4D
:104140000100064B5B681B0A07221340044AD35C3C
:10415000D9400B001800BD4680BDC046001002408B
:1041600008B7000880B582B000AF786039607B681E
:1041700007221A600E4B5B6803221A407B685A6064
:104180000B4B5B68F0221A407B689A60084B5A68B8
:10419000E023DB001A407B68DA60064B1B680122D3
:1041A0001A403B681A60C046BD4602B080BDC0469A
:1041B000001002400020024080B586B000AF786059
:1041C00000233B610023FB607B681A6880235B024D
:1041D000134000D18EE017203B1800221A706E4B5E
:1041E000DA6980235B05134010D16B4BDA696A4BA7
:1041F000802149050A43DA61674BDA6980235B0550
:104200001340BB60BB683B1801221A70634B1A68ED
:1042100080235B0013401AD1604B1A685F4B8021EA
:1042200049000A431A60FDF7C1F903003B6108E049
:10423000FDF7BCF902003B69D31A642B01D90323B3
:10424000A6E0564B1A6880235B001340F0D0524B17
:104250001A6AC0239B001340FB60FB68002B34D01C
:104260007B685A68C0239B001340FA689A422CD09E
:10427000494B1B6A4A4A1340FB60474B1A6A464B3C
:10428000802149020A431A62434B1A6A424B45494C
:104290000A401A62404BFA681A62FB680122134016
:1042A00013D0FDF783F903003B6109E0FDF77EF9C8
:1042B00002003B69D31A3C4A934201D9032367E0C9
:1042C000354B1B6A02221340F0D0334B1B6A344A31
:1042D000134019007B685A682F4B0A431A62172350
:1042E000FB181B78012B05D12B4BDA692A4B2F4980
:1042F0000A40DA617B681B680122134009D0264B13
:104300001B6B0322934319007B689A68224B0A4374
:104310001A637B681B680222134009D01E4B1B6B7B
:10432000234A134019007B68DA681B4B0A431A635F
:104330007B681B682022134009D0174B1B6B10228F
:10434000934319007B681A69134B0A431A637B680D
:104350001A6880239B02134009D00F4B1B6B8022ED
:10436000934319007B689A690B4B0A431A637B6875
:104370001A688023DB00134009D0074B1B6B4022D7
:10438000934319007B685A69034B0A431A6300235D
:104390001800BD4606B080BD00100240007000400D
:1043A000FFFCFFFFFFFFFEFF88130000FFFFFFEF92
:1043B000FFFFFCFF80B582B000AF78607B68002B08
:1043C00001D1012342E07B683D229B5CDBB2002BE4
:1043D00007D17B683C22002199547B681800FCF7C8
:1043E00085FF7B683D22022199547B681A687B68AF
:1043F00004331900100000F0F7FC7B68462201210D
:1044000099547B683E22012199547B683F22012107
:1044100099547B684022012199547B6841220121F3
:1044200099547B684222012199547B6843220121DF
:1044300099547B684422012199547B6845220121CB
:1044400099547B683D220121995400231800BD46F0
:1044500002B080BD80B584B000AF78607B683D223B
:104460009B5CDBB2012B01D001233BE07B683D224A
:10447000022199547B681B68DA687B681B680121FC
:104480000A43DA607B681B68184A93420FD07B6846
:104490001A688023DB059A4209D07B681B68144A9E
:1044A000934204D07B681B68124A934211D17B6807
:1044B0001B689B6807221340FB60FB68062B10D02B
:1044C0007B681B681A687B681B6801210A431A60B5
:1044D00007E07B681B681A687B681B6801210A4338
:1044E0001A6000231800BD4604B080BD002C0140B6
:1044F000000400400040014080B582B000AF786009
:104500007B68002B01D1012342E07B683D229B5C4C
:10451000DBB2002B07D17B683C22002199547B68D9
:10452000180000F039F87B683D22022199547B681D
:104530001A687B6804331900100000F055FC7B6892
:104540004622012199547B683E22012199547B68BF
:104550003F22012199547B684022012199547B68B4
:104560004122012199547B684222012199547B68A0
:104570004322012199547B684422012199547B688C
:104580004522012199547B683D2201219954002341
:104590001800BD4602B080BD80B582B000AF786023
:1045A000C046BD4602B080BD80B582B000AF786025
:1045B0007B68002B01D1012342E07B683D229B5C9C
:1045C000DBB2002B07D17B683C22002199547B6829
:1045D000180000F039F87B683D22022199547B686D
:1045E0001A687B6804331900100000F0FDFB7B683B
:1045F0004622012199547B683E22012199547B680F
:104600003F22012199547B684022012199547B6803
:104610004122012199547B684222012199547B68EF
:104620004322012199547B684422012199547B68DB
:104630004522012199547B683D2201219954002390
:104640001800BD4602B080BD80B582B000AF786072
:10465000C046BD4602B080BD80B586B000AF786070
:1046600039607B68002B01D1012390E07B683D22FB
:104670009B5CDBB2002B07D17B683C220021995464
:104680007B681800FCF784FE7B683D220221995468
:104690007B681B689A687B681B683F490A409A6080
:1046A0007B681A687B6804331900100000F09CFBDB
:1046B0007B681B689B687B617B681B689B693B61AF
:1046C0007B681B681B6AFB603B681B687A69134345
:1046D0007B613B69314A13403B613B689A683B68A8
:1046E0009B691B0213433A6913433B613B692C4AA4
:1046F00013403B613B692B4A13403B613B68DA68DE
:104700003B68DB691B0213433A6913433B613B6817
:104710001B691A013B681B6A1B0313433A69134365
:104720003B61FB6822229343FB60FB688822934332
:10473000FB603B685A683B685B691B011343FA687E
:104740001343FB607B681B687A699A607B681B680F
:104750003A699A617B681B68FA681A627B6846222C
:10476000012199547B683E22012199547B683F22A4
:10477000012199547B684222012199547B6843228C
:10478000012199547B683D2201219954002318008E
:10479000BD4606B080BDC046F8BFFFFFFCFCFFFF72
:1047A000F3F3FFFF0F0FFFFF80B582B000AF78601B
:1047B0007B681B681B6902221340022B24D17B6893
:1047C0001B68DB6802221340022B1DD17B681B682B
:1047D000032252421A617B6801221A777B681B68A8
:1047E0009B690322134004D07B68180000F0E4FAB0
:1047F00007E07B68180006F0DFFC7B68180000F01B
:10480000E3FA7B6800221A777B681B681B69042225
:104810001340042B25D17B681B68DB6804221340FE
:10482000042B1ED17B681B68052252421A617B68EB
:1048300002221A777B681B689A69C0239B00134089
:1048400004D07B68180000F0B7FA07E07B68180016
:1048500006F0B2FC7B68180000F0B6FA7B68002214
:104860001A777B681B681B6908221340082B24D128
:104870007B681B68DB6808221340082B1DD17B680E
:104880001B68092252421A617B6804221A777B68EE
:104890001B68DB690322134004D07B68180000F01A
:1048A0008BFA07E07B68180006F086FC7B6818002E
:1048B00000F08AFA7B6800221A777B681B681B6904
:1048C00010221340102B25D17B681B68DB68102257
:1048D0001340102B1ED17B681B68112252421A61B3
:1048E0007B6808221A777B681B68DA69C0239B0003
:1048F000134004D07B68180000F05EFA07E07B6884
:10490000180006F059FC7B68180000F05DFA7B681F
:1049100000221A777B681B681B6901221340012B58
:104920000FD17B681B68DB6801221340012B08D183
:104930007B681B68022252421A617B681800FCF7F0
:1049400043FA7B681B681B6980221340802B0FD1C0
:104950007B681B68DB6880221340802B08D17B6852
:104960001B68812252421A617B68180000F0B8FD72
:104970007B681B681B6940221340402B0FD17B686A
:104980001B68DB6840221340402B08D17B681B6802
:10499000412252421A617B68180000F01DFA7B68C0
:1049A0001B681B6920221340202B0FD17B681B68DA
:1049B000DB6820221340202B08D17B681B68212252
:1049C00052421A617B68180000F082FDC046BD4665
:1049D00002B080BD80B586B000AFF860B9607A6083
:1049E0001723FB1800221A70FB683C229B5C012BEA
:1049F00001D1022342E0FB683C22012199547B68EB
:104A00000C2B27D07B680C2B2CD87B68082B19D05B
:104A10007B68082B26D87B68002B03D07B68042B8F
:104A200008D01FE0FB681B68BA681100180000F08E
:104A30005BFA1CE0FB681B68BA681100180000F004
:104A4000DBFA14E0FB681B68BA681100180000F07C
:104A500057FB0CE0FB681B68BA681100180000F0F7
:104A6000D5FB04E01723FB1801221A70C046FB682F
:104A70003C22002199541723FB181B781800BD46CF
:104A800006B080BD80B586B000AFF860B9607A60CE
:104A90001723FB1800221A70FB683C229B5C012B39
:104AA00001D10223ADE0FB683C22012199547B68CF
:104AB0000C2B00D176E07B680C2B00D995E07B684D
:104AC000082B4ED07B68082B00D98EE07B68002B2A
:104AD00003D07B68042B21D087E0FB681B68BA6891
:104AE0001100180000F000FAFB681B689A69FB6867
:104AF0001B6808210A439A61FB681B689A69FB6876
:104B00001B6804218A439A61FB681B689969BB682A
:104B10001A69FB681B680A439A616BE0FB681B68B3
:104B2000BA681100180000F067FAFB681B689A6900
:104B3000FB681B68802109010A439A61FB681B68B6
:104B40009A69FB681B6831490A409A61FB681B68D7
:104B50009969BB681B691A02FB681B680A439A6162
:104B600048E0FB681B68BA681100180000F0C8FA3A
:104B7000FB681B68DA69FB681B6808210A43DA6175
:104B8000FB681B68DA69FB681B6804218A43DA61E9
:104B9000FB681B68D969BB681A69FB681B680A4314
:104BA000DA6127E0FB681B68BA681100180000F0A2
:104BB0002DFBFB681B68DA69FB681B688021090113
:104BC0000A43DA61FB681B68DA69FB681B680F49F6
:104BD0000A40DA61FB681B68D969BB681B691A0265
:104BE000FB681B680A43DA6104E01723FB18012203
:104BF0001A70C046FB683C22002199541723FB1809
:104C00001B781800BD4606B080BDC046FFFBFFFF05
:104C100080B584B000AF786039600F23FB180022A4
:104C20001A707B683C229B5C012B01D10223BCE003
:104C30007B683C22012199547B683D2202219954D2
:104C40007B681B689B68BB60BB6877229343BB6033
:104C5000BB68584A1340BB607B681B68BA689A609F
:104C60003B681B6880229201934240D080229201CF
:104C7000934200D988E080225201934200D188E01B
:104C800080225201934200D97EE0702B18D000D9C7
:104C90007AE0602B4FD000D976E0502B3BD000D982
:104CA00072E0402B57D000D96EE0302B63D06BD828
:104CB000202B60D068D8002B5DD0102B5BD063E038
:104CC0007B6818683B6899683B685A683B68DB6892
:104CD00000F080FB7B681B689B68BB60BB68772229
:104CE0001343BB607B681B68BA689A6052E07B68BC
:104CF00018683B6899683B685A683B68DB6800F055
:104D000069FB7B681B689A687B681B688021C90106
:104D10000A439A603EE07B6818683B6859683B68C4
:104D2000DB681A0000F0DCFA7B681B685021180071
:104D300000F036FB2EE07B6818683B6859683B68DA
:104D4000DB681A0000F0FAFA7B681B686021180023
:104D500000F026FB1EE07B6818683B6859683B68DA
:104D6000DB681A0000F0BCFA7B681B684021180061
:104D700000F016FB0EE07B681A683B681B681900A0
:104D8000100000F00DFB05E00F23FB1801221A7044
:104D900000E0C0467B683D22012199547B683C229B
:104DA000002199540F23FB181B781800BD4604B04E
:104DB00080BDC046FF00FFFF80B582B000AF7860C5
:104DC000C046BD4602B080BD80B582B000AF7860FD
:104DD000C046BD4602B080BD80B582B000AF7860ED
:104DE000C046BD4602B080BD80B584B000AF7860DB
:104DF00039607B681B68FB607B68344A934208D04B
:104E00007A688023DB059A4203D07B68304A93425C
:104E100008D1FB6870229343FB603B685B68FA68CB
:104E20001343FB607B68294A934218D07A68802339
:104E3000DB059A4213D07B68254A93420FD07B68EA
:104E4000244A93420BD07B68234A934207D07B6865
:104E5000224A934203D07B68214A934208D1FB68DF
:104E6000204A1340FB603B68DB68FA681343FB6031
:104E7000FB68802293431A003B685B691343FB6025
:104E80007B68FA681A603B689A687B68DA623B68FC
:104E90001A687B689A627B680C4A93420BD07B68E5
:104EA0000D4A934207D07B680C4A934203D07B683B
:104EB0000B4A934203D13B681A697B681A637B688B
:104EC00001225A61C046BD4604B080BD002C01409D
:104ED0000004004000200040004001400044014028
:104EE00000480140FFFCFFFF80B586B000AF78604E
:104EF00039607B681B6A012293431A007B681A623F
:104F00007B681B6A7B617B685B683B617B689B6934
:104F1000FB60FB6870229343FB60FB6803229343B2
:104F2000FB603B681B68FA681343FB607B690222E5
:104F300093437B613B689B687A6913437B617B6821
:104F4000274A93420BD07B68264A934207D07B685E
:104F5000254A934203D07B68244A93420CD17B6953
:104F6000082293437B613B68DB687A6913437B616A
:104F70007B69042293437B617B68194A93420BD07F
:104F80007B68184A934207D07B68174A934203D044
:104F90007B68164A934211D13B69154A13403B6125
:104FA0003B69144A13403B613B685B693A691343B0
:104FB0003B613B689B693A6913433B617B683A6993
:104FC0005A607B68FA689A613B685A687B685A63E2
:104FD0007B687A691A62C046BD4606B080BDC0468D
:104FE000002C0140004001400044014000480140C5
:104FF000FFFEFFFFFFFDFFFF80B586B000AF7860CA
:1050000039607B681B6A102293431A007B681A621E
:105010007B681B6A7B617B685B683B617B689B6923
:10502000FB60FB682E4A1340FB60FB682D4A13406F
:10503000FB603B681B681B02FA681343FB607B69DB
:10504000202293437B613B689B681B017A69134371
:105050007B617B68244A93420DD17B698022934314
:105060007B613B68DB681B017A6913437B617B6969
:10507000402293437B617B681B4A93420BD07B6841
:105080001A4A934207D07B68194A934203D07B683F
:10509000184A934213D13B69174A13403B613B695D
:1050A000164A13403B613B685B699B003A691343B6
:1050B0003B613B689B699B003A6913433B617B689A
:1050C0003A695A607B68FA689A613B685A687B68FB
:1050D0009A637B687A691A62C046BD4606B080BD95
:1050E000FF8FFFFFFFFCFFFF002C0140004001404D
:1050F0000044014000480140FFFBFFFFFFF7FFFFB6
:1051000080B586B000AF786039607B681B6A354A2D
:105110001A407B681A627B681B6A7B617B685B68EC
:105120003B617B68DB69FB60FB6870229343FB603B
:10513000FB6803229343FB603B681B68FA681343D8
:10514000FB607B69284A13407B613B689B681B02BC
:105150007A6913437B617B68244A93420DD17B6952
:10516000234A13407B613B68DB681B027A69134367
:105170007B617B691F4A13407B617B681B4A9342BA
:105180000BD07B681C4A934207D07B681B4A934232
:1051900003D07B681A4A934213D13B69194A1340E2
:1051A0003B613B69184A13403B613B685B691B01EB
:1051B0003A6913433B613B689B691B013A6913439E
:1051C0003B617B683A695A607B68FA68DA613B68E0
:1051D0005A687B68DA637B687A691A62C046BD46A2
:1051E00006B080BDFFFEFFFFFFFDFFFF002C01406A
:1051F000FFF7FFFFFFFBFFFF0040014000440140BD
:1052000000480140FFEFFFFFFFDFFFFF80B586B0E2
:1052100000AF786039607B681B6A284A1A407B6857
:105220001A627B681B6A3B617B685B687B617B6899
:10523000DB69FB60FB68224A1340FB60FB68214A84
:105240001340FB603B681B681B02FA681343FB605A
:105250003B691D4A13403B613B689B681B033A69ED
:1052600013433B617B68194A93420BD07B68184A11
:10527000934207D07B68174A934203D07B68164A53
:10528000934209D17B69154A13407B613B685B6996
:105290009B017A6913437B617B687A695A607B68FA
:1052A000FA68DA613B685A687B681A647B683A6915
:1052B0001A62C046BD4606B080BDC046FFEFFFFF84
:1052C000FF8FFFFFFFFCFFFFFFDFFFFF002C014010
:1052D000004001400044014000480140FFBFFFFF83
:1052E00080B586B000AFF860B9607A60FB681B6A71
:1052F0007B61FB681B6A012293431A00FB681A62F8
:10530000FB689B693B613B69F02293433B617B688F
:105310001B013A6913433B617B690A2293437B611A
:105320007A69BB6813437B61FB683A699A61FB68E1
:105330007A691A62C046BD4606B080BD80B586B0A7
:1053400000AFF860B9607A60FB681B6A1022934373
:105350001A00FB681A62FB689B697B61FB681B6A29
:105360003B617B690D4A13407B617B681B037A6953
:1053700013437B613B69A02293433B61BB681B01E4
:105380003A6913433B61FB687A699A61FB683A6941
:105390001A62C046BD4606B080BDC046FF0FFFFF83
:1053A00080B584B000AF786039607B689B68FB6033
:1053B000FB6870229343FB603A68FB681343072243
:1053C0001343FB607B68FA689A60C046BD4604B030
:1053D00080BD000080B586B000AFF860B9607A602B
:1053E0003B60FB689B687B617B69094A13407B617A
:1053F0003B681A027B681A43BB6813437A691343FC
:105400007B61FB687A699A60C046BD4606B080BD84
:10541000FF00FFFF80B584B000AF786039607B6823
:105420003C229B5C012B01D1022347E07B683C229C
:10543000012199547B683D22022199547B681B68A5
:105440005B68FB607B681B689B68BB60FB687022C5
:105450009343FB603B681B68FA681343FB607B68FF
:105460001B68FA685A607B681B68164A93420FD023
:105470007B681A688023DB059A4209D07B681B6829
:10548000114A934204D07B681B68104A93420CD1A6
:10549000BB6880229343BB603B685B68BA68134378
:1054A000BB607B681B68BA689A607B683D220121FB
:1054B00099547B683C220021995400231800BD4672
:1054C00004B080BD002C01400004004000400140B9
:1054D00080B582B000AF7860C046BD4602B080BDE6
:1054E00080B582B000AF7860C046BD4602B080BDD6
:1054F00080B584B000AF78607B6844220021995267
:10550000054BFB60FB6899B27B68402299520023EF
:105510001800BD4604B080BD80BF000080B584B0D7
:1055200000AF7860094BFB607B6840229B5A9BB2BE
:10553000FA6892B2D24392B2134099B27B68402289
:10554000995200231800BD4604B080BD80BF000002
:1055500084B090B583B000AF7860042010240019A7
:105560000824A446BC4460440160426083607B68B8
:105570004022012199527B684022002199527B6888
:105580004422002199527B68502200219952002325
:105590001800BD4603B090BC08BC04B0184700001A
:1055A00080B59CB000AF786039606F23FB18002293
:1055B0001A707A683B681B789B00D3181B889AB2D4
:1055C0006C23FB18CF490A401A803B68DB78032B19
:1055D00017D028DC022B0ED025DC002B02D0012BAB
:1055E00018D020E06C22BB18BA18128880218900DC
:1055F0000A431A801CE06C22BB18BA1812881A8061
:1056000016E06C22BB18BA181288C021C9000A43E0
:105610001A800DE06C22BB18BA1812888021C900CC
:105620000A431A8004E06F23FB1801221A70C04657
:105630007A683B681B789B00D3186C22BA181288D2
:10564000B1490A4392B21A807A683B681B789B0082
:10565000D3181B889BB21BB2AC4A13401AB23B68EA
:105660001B781BB213431AB266217B181A807A6822
:105670003B681B789B00D3187A181288A2490A430A
:1056800092B21A803B681B7B002B00D050E13B6834
:105690005B78002B00D17AE07B68BB617B6850228D
:1056A0009B5A9BB21A00BB699B18BB613B681B7875
:1056B000DA00BB69D3188022D200944663447B6130
:1056C0003B68DB885B089BB2DB189AB27B691A8067
:1056D0007A683B681B789B00D21812217B181288CD
:1056E0001A807B181B884022134016D07A683B68CA
:1056F0001B789B00D3181B889AB210203B18834953
:105700000A401A807A683B681B789B00D3183A18C5
:1057100012887F490A4392B21A803B68DB78012BDA
:105720001DD07A683B681B789B00D3181B889AB2FF
:105730000C203B1877490A401A803B183A18128807
:1057400020214A401A807A683B681B789B00D31856
:105750003A1812886C490A4392B21A807AE27A683F
:105760003B681B789B00D3181B889AB20E203B180D
:1057700068490A401A807A683B681B789B00D318F6
:105780003A18128860490A4392B21A8062E27B6832
:105790003B637B6850229B5A9BB21A003B6B9B1861
:1057A0003B633B681B78DA003B6BD3185A4A94463C
:1057B0006344FB623B68DB885B089BB2DB189AB2F0
:1057C000FB6A1A807B68BB627B6850229B5A9BB243
:1057D0001A00BB6A9B18BB623B681B78DA00BB6A85
:1057E000D3184E4A944663447B623B681B69002B86
:1057F00010D17B6A1B889BB2494A13409AB27B6ADC
:105800001A807B6A1B889BB2464A13439AB27B6A12
:105810001A802BE03B681B693E2B12D83B681B6942
:105820005B08BB663B681B690122134002D0BB6E5C
:105830000133BB66BB6E9BB29B029AB27B6A1A8035
:1058400014E03B681B695B09BB663B681B691F2250
:10585000134002D1BB6E013BBB66BB6E9BB29B0289
:105860009BB2304A13439AB27B6A1A807A683B68CB
:105870001B789B00D21822217B1812881A807B1873
:105880001A888023DB01134016D07A683B681B78A6
:105890009B00D3181B889AB220203B181B490A4052
:1058A0001A807A683B681B789B00D3183A181288D4
:1058B0001D490A4392B21A807A683B681B789B00A4
:1058C000D3181B889AB21E203B1818490A401A8028
:1058D0003B183A181288802149014A401A803B1827
:1058E0003A181288802189014A401A807A683B68F8
:1058F0001B789B00D3183A18128803490A4392B2C6
:105900001A80A7E18F89FFFF8080FFFF8F8FFFFF45
:10591000C080FFFFBF8FFFFF0404000006040000EB
:10592000FF83FFFF0080FFFF80C0FFFF8FBFFFFFEF
:105930003B68DB78022B17D17A683B681B789B00A9
:10594000D3181B889AB262203B18C6490A401A80B5
:105950007A683B681B789B00D3183A181288C249B2
:105960000A4392B21A8016E07A683B681B789B0063
:10597000D3181B889AB264203B18BC490A401A808D
:105980007A683B681B789B00D3183A181288B8498C
:105990000A4392B21A807B68FB657B6850229B5A4F
:1059A0009BB21A00FB6D9B18FB653B681B78DA0005
:1059B000FB6DD3188022D20094466344BB653B68DC
:1059C0001B895B089BB2DB189AB2BB6D1A807B689F
:1059D0007B657B6850229B5A9BB21A007B6D9B189B
:1059E0007B653B681B78DA007B6DD318A14A94462F
:1059F00063443B653B685B895B089BB2DB189AB2EA
:105A00003B6D1A803B685B78002B00D087E07A689A
:105A10003B681B789B00D21840217B1812881A80A3
:105A20007B181A888023DB01134016D07A683B6804
:105A30001B789B00D3181B889AB23E203B188949DB
:105A40000A401A807A683B681B789B00D3183A1882
:105A5000128889490A4392B21A807A683B681B7897
:105A60009B00D2183C217B1812881A807B181B8857
:105A70004022134016D07A683B681B789B00D318ED
:105A80001B889AB23A203B1876490A401A807A68F5
:105A90003B681B789B00D3183A18128877490A4351
:105AA00092B21A807A683B681B789B00D3181B88D7
:105AB0009AB238203B1872490A401A803B183A18AB
:105AC0001288802149014A401A803B183A181288EE
:105AD000802189014A401A807A683B681B789B00C4
